{
	"contracts/DonateCrypto.sol": {
		"DonateCrypto": {
			"abi": [
				{
					"inputs": [],
					"stateMutability": "nonpayable",
					"type": "constructor"
				},
				{
					"inputs": [
						{
							"internalType": "uint256",
							"name": "goalAmount",
							"type": "uint256"
						},
						{
							"internalType": "string",
							"name": "title",
							"type": "string"
						},
						{
							"internalType": "string",
							"name": "description",
							"type": "string"
						},
						{
							"internalType": "string",
							"name": "videoUrl",
							"type": "string"
						},
						{
							"internalType": "string",
							"name": "imageUrl",
							"type": "string"
						}
					],
					"name": "addCampaign",
					"outputs": [],
					"stateMutability": "nonpayable",
					"type": "function"
				},
				{
					"inputs": [
						{
							"internalType": "uint256",
							"name": "",
							"type": "uint256"
						}
					],
					"name": "campaigns",
					"outputs": [
						{
							"internalType": "address",
							"name": "creator",
							"type": "address"
						},
						{
							"internalType": "uint256",
							"name": "goalAmount",
							"type": "uint256"
						},
						{
							"internalType": "string",
							"name": "title",
							"type": "string"
						},
						{
							"internalType": "string",
							"name": "description",
							"type": "string"
						},
						{
							"internalType": "string",
							"name": "videoUrl",
							"type": "string"
						},
						{
							"internalType": "string",
							"name": "imageUrl",
							"type": "string"
						},
						{
							"internalType": "uint256",
							"name": "balance",
							"type": "uint256"
						},
						{
							"internalType": "bool",
							"name": "active",
							"type": "bool"
						}
					],
					"stateMutability": "view",
					"type": "function"
				},
				{
					"inputs": [
						{
							"internalType": "uint256",
							"name": "id",
							"type": "uint256"
						}
					],
					"name": "donate",
					"outputs": [],
					"stateMutability": "payable",
					"type": "function"
				},
				{
					"inputs": [],
					"name": "fee",
					"outputs": [
						{
							"internalType": "uint256",
							"name": "",
							"type": "uint256"
						}
					],
					"stateMutability": "view",
					"type": "function"
				},
				{
					"inputs": [],
					"name": "nextId",
					"outputs": [
						{
							"internalType": "uint256",
							"name": "",
							"type": "uint256"
						}
					],
					"stateMutability": "view",
					"type": "function"
				},
				{
					"inputs": [],
					"name": "owner",
					"outputs": [
						{
							"internalType": "address",
							"name": "",
							"type": "address"
						}
					],
					"stateMutability": "view",
					"type": "function"
				},
				{
					"inputs": [
						{
							"internalType": "uint256",
							"name": "id",
							"type": "uint256"
						}
					],
					"name": "withdraw",
					"outputs": [],
					"stateMutability": "nonpayable",
					"type": "function"
				}
			],
			"devdoc": {
				"kind": "dev",
				"methods": {},
				"version": 1
			},
			"evm": {
				"assembly": "    /* \"contracts/DonateCrypto.sol\":289:2288  contract DonateCrypto {... */\n  mstore(0x40, 0x80)\n    /* \"contracts/DonateCrypto.sol\":341:344  100 */\n  0x64\n    /* \"contracts/DonateCrypto.sol\":320:344  uint256 public fee = 100 */\n  0x00\n  sstore\n    /* \"contracts/DonateCrypto.sol\":382:383  1 */\n  0x01\n    /* \"contracts/DonateCrypto.sol\":358:383  uint256 public nextId = 1 */\n  dup1\n  sstore\n    /* \"contracts/DonateCrypto.sol\":479:530  constructor() {... */\n  callvalue\n  dup1\n  iszero\n  tag_1\n  jumpi\n  0x00\n  dup1\n  revert\ntag_1:\n  pop\n    /* \"contracts/DonateCrypto.sol\":504:509  owner */\n  0x03\n    /* \"contracts/DonateCrypto.sol\":504:522  owner = msg.sender */\n  dup1\n  sload\n  not(sub(shl(0xa0, 0x01), 0x01))\n  and\n    /* \"contracts/DonateCrypto.sol\":512:522  msg.sender */\n  caller\n    /* \"contracts/DonateCrypto.sol\":504:522  owner = msg.sender */\n  or\n  swap1\n  sstore\n    /* \"contracts/DonateCrypto.sol\":289:2288  contract DonateCrypto {... */\n  dataSize(sub_0)\n  dup1\n  dataOffset(sub_0)\n  0x00\n  codecopy\n  0x00\n  return\nstop\n\nsub_0: assembly {\n        /* \"contracts/DonateCrypto.sol\":289:2288  contract DonateCrypto {... */\n      mstore(0x40, 0x80)\n      jumpi(tag_1, lt(calldatasize, 0x04))\n      shr(0xe0, calldataload(0x00))\n      dup1\n      0x8da5cb5b\n      gt\n      tag_9\n      jumpi\n      dup1\n      0x8da5cb5b\n      eq\n      tag_5\n      jumpi\n      dup1\n      0xddca3f43\n      eq\n      tag_6\n      jumpi\n      dup1\n      0xf14faf6f\n      eq\n      tag_7\n      jumpi\n      dup1\n      0xffe4082f\n      eq\n      tag_8\n      jumpi\n      0x00\n      dup1\n      revert\n    tag_9:\n      dup1\n      0x141961bc\n      eq\n      tag_2\n      jumpi\n      dup1\n      0x2e1a7d4d\n      eq\n      tag_3\n      jumpi\n      dup1\n      0x61b8ce8c\n      eq\n      tag_4\n      jumpi\n    tag_1:\n      0x00\n      dup1\n      revert\n        /* \"contracts/DonateCrypto.sol\":396:441  mapping(uint256 => Campaign) public campaigns */\n    tag_2:\n      callvalue\n      dup1\n      iszero\n      tag_10\n      jumpi\n      0x00\n      dup1\n      revert\n    tag_10:\n      pop\n      tag_11\n      tag_12\n      calldatasize\n      0x04\n      tag_13\n      jump\t// in\n    tag_12:\n      tag_14\n      jump\t// in\n    tag_11:\n      mload(0x40)\n      tag_15\n      swap9\n      swap8\n      swap7\n      swap6\n      swap5\n      swap4\n      swap3\n      swap2\n      swap1\n      tag_16\n      jump\t// in\n    tag_15:\n      mload(0x40)\n      dup1\n      swap2\n      sub\n      swap1\n      return\n        /* \"contracts/DonateCrypto.sol\":1806:2285  function withdraw(uint256 id) public noReentrancy onlyCreator(id) {... */\n    tag_3:\n      callvalue\n      dup1\n      iszero\n      tag_17\n      jumpi\n      0x00\n      dup1\n      revert\n    tag_17:\n      pop\n      tag_18\n      tag_19\n      calldatasize\n      0x04\n      tag_13\n      jump\t// in\n    tag_19:\n      tag_20\n      jump\t// in\n    tag_18:\n      stop\n        /* \"contracts/DonateCrypto.sol\":358:383  uint256 public nextId = 1 */\n    tag_4:\n      callvalue\n      dup1\n      iszero\n      tag_21\n      jumpi\n      0x00\n      dup1\n      revert\n    tag_21:\n      pop\n      tag_22\n      sload(0x01)\n      dup2\n      jump\n    tag_22:\n      mload(0x40)\n        /* \"#utility.yul\":1725:1750   */\n      swap1\n      dup2\n      mstore\n        /* \"#utility.yul\":1713:1715   */\n      0x20\n        /* \"#utility.yul\":1698:1716   */\n      add\n        /* \"contracts/DonateCrypto.sol\":358:383  uint256 public nextId = 1 */\n      tag_15\n        /* \"#utility.yul\":1579:1756   */\n      jump\n        /* \"contracts/DonateCrypto.sol\":450:470  address public owner */\n    tag_5:\n      callvalue\n      dup1\n      iszero\n      tag_26\n      jumpi\n      0x00\n      dup1\n      revert\n    tag_26:\n      pop\n      sload(0x03)\n      tag_27\n      swap1\n      sub(shl(0xa0, 0x01), 0x01)\n      and\n      dup2\n      jump\n    tag_27:\n      mload(0x40)\n      sub(shl(0xa0, 0x01), 0x01)\n        /* \"#utility.yul\":1925:1957   */\n      swap1\n      swap2\n      and\n        /* \"#utility.yul\":1907:1958   */\n      dup2\n      mstore\n        /* \"#utility.yul\":1895:1897   */\n      0x20\n        /* \"#utility.yul\":1880:1898   */\n      add\n        /* \"contracts/DonateCrypto.sol\":450:470  address public owner */\n      tag_15\n        /* \"#utility.yul\":1761:1964   */\n      jump\n        /* \"contracts/DonateCrypto.sol\":320:344  uint256 public fee = 100 */\n    tag_6:\n      callvalue\n      dup1\n      iszero\n      tag_31\n      jumpi\n      0x00\n      dup1\n      revert\n    tag_31:\n      pop\n      tag_22\n      sload(0x00)\n      dup2\n      jump\n        /* \"contracts/DonateCrypto.sol\":1554:1798  function donate(uint256 id) public payable {... */\n    tag_7:\n      tag_18\n      tag_36\n      calldatasize\n      0x04\n      tag_13\n      jump\t// in\n    tag_36:\n      tag_37\n      jump\t// in\n        /* \"contracts/DonateCrypto.sol\":1002:1546  function addCampaign(... */\n    tag_8:\n      callvalue\n      dup1\n      iszero\n      tag_38\n      jumpi\n      0x00\n      dup1\n      revert\n    tag_38:\n      pop\n      tag_18\n      tag_40\n      calldatasize\n      0x04\n      tag_41\n      jump\t// in\n    tag_40:\n      tag_42\n      jump\t// in\n        /* \"contracts/DonateCrypto.sol\":396:441  mapping(uint256 => Campaign) public campaigns */\n    tag_14:\n      0x02\n      0x20\n      dup2\n      swap1\n      mstore\n      0x00\n      swap2\n      dup3\n      mstore\n      0x40\n      swap1\n      swap2\n      keccak256\n      dup1\n      sload\n      0x01\n      dup3\n      add\n      sload\n      swap3\n      dup3\n      add\n      dup1\n      sload\n      sub(shl(0xa0, 0x01), 0x01)\n      swap1\n      swap3\n      and\n      swap4\n      swap3\n      swap2\n      tag_43\n      swap1\n      tag_44\n      jump\t// in\n    tag_43:\n      dup1\n      0x1f\n      add\n      0x20\n      dup1\n      swap2\n      div\n      mul\n      0x20\n      add\n      mload(0x40)\n      swap1\n      dup2\n      add\n      0x40\n      mstore\n      dup1\n      swap3\n      swap2\n      swap1\n      dup2\n      dup2\n      mstore\n      0x20\n      add\n      dup3\n      dup1\n      sload\n      tag_45\n      swap1\n      tag_44\n      jump\t// in\n    tag_45:\n      dup1\n      iszero\n      tag_46\n      jumpi\n      dup1\n      0x1f\n      lt\n      tag_47\n      jumpi\n      0x0100\n      dup1\n      dup4\n      sload\n      div\n      mul\n      dup4\n      mstore\n      swap2\n      0x20\n      add\n      swap2\n      jump(tag_46)\n    tag_47:\n      dup3\n      add\n      swap2\n      swap1\n      0x00\n      mstore\n      keccak256(0x00, 0x20)\n      swap1\n    tag_48:\n      dup2\n      sload\n      dup2\n      mstore\n      swap1\n      0x01\n      add\n      swap1\n      0x20\n      add\n      dup1\n      dup4\n      gt\n      tag_48\n      jumpi\n      dup3\n      swap1\n      sub\n      0x1f\n      and\n      dup3\n      add\n      swap2\n    tag_46:\n      pop\n      pop\n      pop\n      pop\n      pop\n      swap1\n      dup1\n      0x03\n      add\n      dup1\n      sload\n      tag_49\n      swap1\n      tag_44\n      jump\t// in\n    tag_49:\n      dup1\n      0x1f\n      add\n      0x20\n      dup1\n      swap2\n      div\n      mul\n      0x20\n      add\n      mload(0x40)\n      swap1\n      dup2\n      add\n      0x40\n      mstore\n      dup1\n      swap3\n      swap2\n      swap1\n      dup2\n      dup2\n      mstore\n      0x20\n      add\n      dup3\n      dup1\n      sload\n      tag_50\n      swap1\n      tag_44\n      jump\t// in\n    tag_50:\n      dup1\n      iszero\n      tag_51\n      jumpi\n      dup1\n      0x1f\n      lt\n      tag_52\n      jumpi\n      0x0100\n      dup1\n      dup4\n      sload\n      div\n      mul\n      dup4\n      mstore\n      swap2\n      0x20\n      add\n      swap2\n      jump(tag_51)\n    tag_52:\n      dup3\n      add\n      swap2\n      swap1\n      0x00\n      mstore\n      keccak256(0x00, 0x20)\n      swap1\n    tag_53:\n      dup2\n      sload\n      dup2\n      mstore\n      swap1\n      0x01\n      add\n      swap1\n      0x20\n      add\n      dup1\n      dup4\n      gt\n      tag_53\n      jumpi\n      dup3\n      swap1\n      sub\n      0x1f\n      and\n      dup3\n      add\n      swap2\n    tag_51:\n      pop\n      pop\n      pop\n      pop\n      pop\n      swap1\n      dup1\n      0x04\n      add\n      dup1\n      sload\n      tag_54\n      swap1\n      tag_44\n      jump\t// in\n    tag_54:\n      dup1\n      0x1f\n      add\n      0x20\n      dup1\n      swap2\n      div\n      mul\n      0x20\n      add\n      mload(0x40)\n      swap1\n      dup2\n      add\n      0x40\n      mstore\n      dup1\n      swap3\n      swap2\n      swap1\n      dup2\n      dup2\n      mstore\n      0x20\n      add\n      dup3\n      dup1\n      sload\n      tag_55\n      swap1\n      tag_44\n      jump\t// in\n    tag_55:\n      dup1\n      iszero\n      tag_56\n      jumpi\n      dup1\n      0x1f\n      lt\n      tag_57\n      jumpi\n      0x0100\n      dup1\n      dup4\n      sload\n      div\n      mul\n      dup4\n      mstore\n      swap2\n      0x20\n      add\n      swap2\n      jump(tag_56)\n    tag_57:\n      dup3\n      add\n      swap2\n      swap1\n      0x00\n      mstore\n      keccak256(0x00, 0x20)\n      swap1\n    tag_58:\n      dup2\n      sload\n      dup2\n      mstore\n      swap1\n      0x01\n      add\n      swap1\n      0x20\n      add\n      dup1\n      dup4\n      gt\n      tag_58\n      jumpi\n      dup3\n      swap1\n      sub\n      0x1f\n      and\n      dup3\n      add\n      swap2\n    tag_56:\n      pop\n      pop\n      pop\n      pop\n      pop\n      swap1\n      dup1\n      0x05\n      add\n      dup1\n      sload\n      tag_59\n      swap1\n      tag_44\n      jump\t// in\n    tag_59:\n      dup1\n      0x1f\n      add\n      0x20\n      dup1\n      swap2\n      div\n      mul\n      0x20\n      add\n      mload(0x40)\n      swap1\n      dup2\n      add\n      0x40\n      mstore\n      dup1\n      swap3\n      swap2\n      swap1\n      dup2\n      dup2\n      mstore\n      0x20\n      add\n      dup3\n      dup1\n      sload\n      tag_60\n      swap1\n      tag_44\n      jump\t// in\n    tag_60:\n      dup1\n      iszero\n      tag_61\n      jumpi\n      dup1\n      0x1f\n      lt\n      tag_62\n      jumpi\n      0x0100\n      dup1\n      dup4\n      sload\n      div\n      mul\n      dup4\n      mstore\n      swap2\n      0x20\n      add\n      swap2\n      jump(tag_61)\n    tag_62:\n      dup3\n      add\n      swap2\n      swap1\n      0x00\n      mstore\n      keccak256(0x00, 0x20)\n      swap1\n    tag_63:\n      dup2\n      sload\n      dup2\n      mstore\n      swap1\n      0x01\n      add\n      swap1\n      0x20\n      add\n      dup1\n      dup4\n      gt\n      tag_63\n      jumpi\n      dup3\n      swap1\n      sub\n      0x1f\n      and\n      dup3\n      add\n      swap2\n    tag_61:\n      pop\n      pop\n      pop\n      pop\n      0x06\n      dup4\n      add\n      sload\n      0x07\n      swap1\n      swap4\n      add\n      sload\n      swap2\n      swap3\n      swap2\n      0xff\n      and\n      swap1\n      pop\n      dup9\n      jump\t// out\n        /* \"contracts/DonateCrypto.sol\":1806:2285  function withdraw(uint256 id) public noReentrancy onlyCreator(id) {... */\n    tag_20:\n        /* \"contracts/DonateCrypto.sol\":741:747  locked */\n      sload(0x03)\n      shl(0xa0, 0x01)\n      swap1\n      div\n      0xff\n      and\n        /* \"contracts/DonateCrypto.sol\":740:747  !locked */\n      iszero\n        /* \"contracts/DonateCrypto.sol\":732:765  require(!locked, \"No reentrancy\") */\n      tag_65\n      jumpi\n      mload(0x40)\n      shl(0xe5, 0x461bcd)\n      dup2\n      mstore\n        /* \"#utility.yul\":4356:4358   */\n      0x20\n        /* \"contracts/DonateCrypto.sol\":732:765  require(!locked, \"No reentrancy\") */\n      0x04\n      dup3\n      add\n        /* \"#utility.yul\":4338:4359   */\n      mstore\n        /* \"#utility.yul\":4395:4397   */\n      0x0d\n        /* \"#utility.yul\":4375:4393   */\n      0x24\n      dup3\n      add\n        /* \"#utility.yul\":4368:4398   */\n      mstore\n      shl(0x98, 0x4e6f207265656e7472616e6379)\n        /* \"#utility.yul\":4414:4432   */\n      0x44\n      dup3\n      add\n        /* \"#utility.yul\":4407:4450   */\n      mstore\n        /* \"#utility.yul\":4467:4485   */\n      0x64\n      add\n        /* \"contracts/DonateCrypto.sol\":732:765  require(!locked, \"No reentrancy\") */\n    tag_66:\n      mload(0x40)\n      dup1\n      swap2\n      sub\n      swap1\n      revert\n    tag_65:\n        /* \"contracts/DonateCrypto.sol\":776:782  locked */\n      0x03\n        /* \"contracts/DonateCrypto.sol\":776:789  locked = true */\n      dup1\n      sload\n      not(shl(0xa0, 0xff))\n      and\n      shl(0xa0, 0x01)\n      or\n      swap1\n      sstore\n      0x00\n        /* \"contracts/DonateCrypto.sol\":894:907  campaigns[id] */\n      dup2\n      dup2\n      mstore\n        /* \"contracts/DonateCrypto.sol\":894:903  campaigns */\n      0x02\n        /* \"contracts/DonateCrypto.sol\":894:907  campaigns[id] */\n      0x20\n      mstore\n      0x40\n      swap1\n      keccak256\n        /* \"contracts/DonateCrypto.sol\":894:915  campaigns[id].creator */\n      sload\n        /* \"contracts/DonateCrypto.sol\":1868:1870  id */\n      dup2\n      swap1\n      sub(shl(0xa0, 0x01), 0x01)\n        /* \"contracts/DonateCrypto.sol\":894:915  campaigns[id].creator */\n      and\n        /* \"contracts/DonateCrypto.sol\":919:929  msg.sender */\n      caller\n        /* \"contracts/DonateCrypto.sol\":894:929  campaigns[id].creator == msg.sender */\n      eq\n        /* \"contracts/DonateCrypto.sol\":886:974  require(campaigns[id].creator == msg.sender, \"You are not the creator of this campaign\") */\n      tag_69\n      jumpi\n      mload(0x40)\n      shl(0xe5, 0x461bcd)\n      dup2\n      mstore\n        /* \"#utility.yul\":4698:4700   */\n      0x20\n        /* \"contracts/DonateCrypto.sol\":886:974  require(campaigns[id].creator == msg.sender, \"You are not the creator of this campaign\") */\n      0x04\n      dup3\n      add\n        /* \"#utility.yul\":4680:4701   */\n      mstore\n        /* \"#utility.yul\":4737:4739   */\n      0x28\n        /* \"#utility.yul\":4717:4735   */\n      0x24\n      dup3\n      add\n        /* \"#utility.yul\":4710:4740   */\n      mstore\n        /* \"#utility.yul\":4776:4810   */\n      0x596f7520617265206e6f74207468652063726561746f72206f66207468697320\n        /* \"#utility.yul\":4756:4774   */\n      0x44\n      dup3\n      add\n        /* \"#utility.yul\":4749:4811   */\n      mstore\n      shl(0xc1, 0x31b0b6b830b4b3b7)\n        /* \"#utility.yul\":4827:4845   */\n      0x64\n      dup3\n      add\n        /* \"#utility.yul\":4820:4858   */\n      mstore\n        /* \"#utility.yul\":4875:4894   */\n      0x84\n      add\n        /* \"contracts/DonateCrypto.sol\":886:974  require(campaigns[id].creator == msg.sender, \"You are not the creator of this campaign\") */\n      tag_66\n        /* \"#utility.yul\":4496:4900   */\n      jump\n        /* \"contracts/DonateCrypto.sol\":886:974  require(campaigns[id].creator == msg.sender, \"You are not the creator of this campaign\") */\n    tag_69:\n        /* \"contracts/DonateCrypto.sol\":1883:1908  Campaign storage campaign */\n      0x00\n        /* \"contracts/DonateCrypto.sol\":1911:1924  campaigns[id] */\n      dup3\n      dup2\n      mstore\n        /* \"contracts/DonateCrypto.sol\":1911:1920  campaigns */\n      0x02\n        /* \"contracts/DonateCrypto.sol\":1911:1924  campaigns[id] */\n      0x20\n      mstore\n      0x40\n      swap1\n      keccak256\n        /* \"contracts/DonateCrypto.sol\":1943:1958  campaign.active */\n      0x07\n      dup2\n      add\n      sload\n      0xff\n      and\n        /* \"contracts/DonateCrypto.sol\":1935:1981  require(campaign.active, \"Campaign is closed\") */\n      tag_73\n      jumpi\n      mload(0x40)\n      shl(0xe5, 0x461bcd)\n      dup2\n      mstore\n        /* \"#utility.yul\":5107:5109   */\n      0x20\n        /* \"contracts/DonateCrypto.sol\":1935:1981  require(campaign.active, \"Campaign is closed\") */\n      0x04\n      dup3\n      add\n        /* \"#utility.yul\":5089:5110   */\n      mstore\n        /* \"#utility.yul\":5146:5148   */\n      0x12\n        /* \"#utility.yul\":5126:5144   */\n      0x24\n      dup3\n      add\n        /* \"#utility.yul\":5119:5149   */\n      mstore\n      shl(0x72, 0x10d85b5c185a59db881a5cc818db1bdcd959)\n        /* \"#utility.yul\":5165:5183   */\n      0x44\n      dup3\n      add\n        /* \"#utility.yul\":5158:5206   */\n      mstore\n        /* \"#utility.yul\":5223:5241   */\n      0x64\n      add\n        /* \"contracts/DonateCrypto.sol\":1935:1981  require(campaign.active, \"Campaign is closed\") */\n      tag_66\n        /* \"#utility.yul\":4905:5247   */\n      jump\n        /* \"contracts/DonateCrypto.sol\":1935:1981  require(campaign.active, \"Campaign is closed\") */\n    tag_73:\n        /* \"contracts/DonateCrypto.sol\":2019:2022  fee */\n      sload(0x00)\n        /* \"contracts/DonateCrypto.sol\":2000:2008  campaign */\n      dup2\n        /* \"contracts/DonateCrypto.sol\":2000:2016  campaign.balance */\n      0x06\n      add\n      sload\n        /* \"contracts/DonateCrypto.sol\":2000:2022  campaign.balance > fee */\n      gt\n        /* \"contracts/DonateCrypto.sol\":1992:2047  require(campaign.balance > fee, \"Insufficient balance\") */\n      tag_76\n      jumpi\n      mload(0x40)\n      shl(0xe5, 0x461bcd)\n      dup2\n      mstore\n        /* \"#utility.yul\":5454:5456   */\n      0x20\n        /* \"contracts/DonateCrypto.sol\":1992:2047  require(campaign.balance > fee, \"Insufficient balance\") */\n      0x04\n      dup3\n      add\n        /* \"#utility.yul\":5436:5457   */\n      mstore\n        /* \"#utility.yul\":5493:5495   */\n      0x14\n        /* \"#utility.yul\":5473:5491   */\n      0x24\n      dup3\n      add\n        /* \"#utility.yul\":5466:5496   */\n      mstore\n      shl(0x60, 0x496e73756666696369656e742062616c616e6365)\n        /* \"#utility.yul\":5512:5530   */\n      0x44\n      dup3\n      add\n        /* \"#utility.yul\":5505:5555   */\n      mstore\n        /* \"#utility.yul\":5572:5590   */\n      0x64\n      add\n        /* \"contracts/DonateCrypto.sol\":1992:2047  require(campaign.balance > fee, \"Insufficient balance\") */\n      tag_66\n        /* \"#utility.yul\":5252:5596   */\n      jump\n        /* \"contracts/DonateCrypto.sol\":1992:2047  require(campaign.balance > fee, \"Insufficient balance\") */\n    tag_76:\n        /* \"contracts/DonateCrypto.sol\":2096:2112  campaign.creator */\n      dup1\n      sload\n        /* \"contracts/DonateCrypto.sol\":2060:2085  address payable recipient */\n      0x00\n        /* \"contracts/DonateCrypto.sol\":2184:2187  fee */\n      dup1\n      sload\n        /* \"contracts/DonateCrypto.sol\":2165:2181  campaign.balance */\n      0x06\n      dup5\n      add\n      sload\n      sub(shl(0xa0, 0x01), 0x01)\n        /* \"contracts/DonateCrypto.sol\":2096:2112  campaign.creator */\n      swap1\n      swap4\n      and\n      swap3\n      dup4\n      swap2\n        /* \"contracts/DonateCrypto.sol\":2165:2187  campaign.balance - fee */\n      tag_79\n      swap2\n      tag_80\n      jump\t// in\n    tag_79:\n        /* \"contracts/DonateCrypto.sol\":2143:2192  recipient.call{value: campaign.balance - fee}(\"\") */\n      mload(0x40)\n      0x00\n      dup2\n      dup2\n      dup2\n      dup6\n      dup8\n      gas\n      call\n      swap3\n      pop\n      pop\n      pop\n      returndatasize\n      dup1\n      0x00\n      dup2\n      eq\n      tag_85\n      jumpi\n      mload(0x40)\n      swap2\n      pop\n      and(add(returndatasize, 0x3f), not(0x1f))\n      dup3\n      add\n      0x40\n      mstore\n      returndatasize\n      dup3\n      mstore\n      returndatasize\n      0x00\n      0x20\n      dup5\n      add\n      returndatacopy\n      jump(tag_84)\n    tag_85:\n      0x60\n      swap2\n      pop\n    tag_84:\n      pop\n        /* \"contracts/DonateCrypto.sol\":2124:2192  (bool success, ) = recipient.call{value: campaign.balance - fee}(\"\") */\n      pop\n      swap1\n      pop\n        /* \"contracts/DonateCrypto.sol\":2211:2218  success */\n      dup1\n        /* \"contracts/DonateCrypto.sol\":2203:2241  require(success, \"Transaction failed\") */\n      tag_86\n      jumpi\n      mload(0x40)\n      shl(0xe5, 0x461bcd)\n      dup2\n      mstore\n        /* \"#utility.yul\":6278:6280   */\n      0x20\n        /* \"contracts/DonateCrypto.sol\":2203:2241  require(success, \"Transaction failed\") */\n      0x04\n      dup3\n      add\n        /* \"#utility.yul\":6260:6281   */\n      mstore\n        /* \"#utility.yul\":6317:6319   */\n      0x12\n        /* \"#utility.yul\":6297:6315   */\n      0x24\n      dup3\n      add\n        /* \"#utility.yul\":6290:6320   */\n      mstore\n      shl(0x72, 0x151c985b9cd858dd1a5bdb8819985a5b1959)\n        /* \"#utility.yul\":6336:6354   */\n      0x44\n      dup3\n      add\n        /* \"#utility.yul\":6329:6377   */\n      mstore\n        /* \"#utility.yul\":6394:6412   */\n      0x64\n      add\n        /* \"contracts/DonateCrypto.sol\":2203:2241  require(success, \"Transaction failed\") */\n      tag_66\n        /* \"#utility.yul\":6076:6418   */\n      jump\n        /* \"contracts/DonateCrypto.sol\":2203:2241  require(success, \"Transaction failed\") */\n    tag_86:\n      pop\n      pop\n        /* \"contracts/DonateCrypto.sol\":2254:2269  campaign.active */\n      0x07\n      add\n        /* \"contracts/DonateCrypto.sol\":2254:2277  campaign.active = false */\n      dup1\n      sload\n      not(0xff)\n      and\n      swap1\n      sstore\n      pop\n      pop\n        /* \"contracts/DonateCrypto.sol\":812:818  locked */\n      0x03\n        /* \"contracts/DonateCrypto.sol\":812:826  locked = false */\n      dup1\n      sload\n      not(shl(0xa0, 0xff))\n      and\n      swap1\n      sstore\n        /* \"contracts/DonateCrypto.sol\":1806:2285  function withdraw(uint256 id) public noReentrancy onlyCreator(id) {... */\n      jump\t// out\n        /* \"contracts/DonateCrypto.sol\":1554:1798  function donate(uint256 id) public payable {... */\n    tag_37:\n        /* \"contracts/DonateCrypto.sol\":1616:1629  campaigns[id] */\n      0x00\n      dup2\n      dup2\n      mstore\n        /* \"contracts/DonateCrypto.sol\":1616:1625  campaigns */\n      0x02\n        /* \"contracts/DonateCrypto.sol\":1616:1629  campaigns[id] */\n      0x20\n      mstore\n      0x40\n      swap1\n      keccak256\n        /* \"contracts/DonateCrypto.sol\":1616:1636  campaigns[id].active */\n      0x07\n      add\n      sload\n      0xff\n      and\n        /* \"contracts/DonateCrypto.sol\":1608:1663  require(campaigns[id].active, \"Campaign is not active\") */\n      tag_90\n      jumpi\n      mload(0x40)\n      shl(0xe5, 0x461bcd)\n      dup2\n      mstore\n        /* \"#utility.yul\":6625:6627   */\n      0x20\n        /* \"contracts/DonateCrypto.sol\":1608:1663  require(campaigns[id].active, \"Campaign is not active\") */\n      0x04\n      dup3\n      add\n        /* \"#utility.yul\":6607:6628   */\n      mstore\n        /* \"#utility.yul\":6664:6666   */\n      0x16\n        /* \"#utility.yul\":6644:6662   */\n      0x24\n      dup3\n      add\n        /* \"#utility.yul\":6637:6667   */\n      mstore\n      shl(0x50, 0x43616d706169676e206973206e6f7420616374697665)\n        /* \"#utility.yul\":6683:6701   */\n      0x44\n      dup3\n      add\n        /* \"#utility.yul\":6676:6728   */\n      mstore\n        /* \"#utility.yul\":6745:6763   */\n      0x64\n      add\n        /* \"contracts/DonateCrypto.sol\":1608:1663  require(campaigns[id].active, \"Campaign is not active\") */\n      tag_66\n        /* \"#utility.yul\":6423:6769   */\n      jump\n        /* \"contracts/DonateCrypto.sol\":1608:1663  require(campaigns[id].active, \"Campaign is not active\") */\n    tag_90:\n        /* \"contracts/DonateCrypto.sol\":1682:1691  msg.value */\n      callvalue\n        /* \"contracts/DonateCrypto.sol\":1695:1696  0 */\n      0x00\n        /* \"contracts/DonateCrypto.sol\":1682:1696  msg.value != 0 */\n      sub\n        /* \"contracts/DonateCrypto.sol\":1674:1735  require(msg.value != 0, \"Donation must be greater than zero\") */\n      tag_93\n      jumpi\n      mload(0x40)\n      shl(0xe5, 0x461bcd)\n      dup2\n      mstore\n        /* \"#utility.yul\":6976:6978   */\n      0x20\n        /* \"contracts/DonateCrypto.sol\":1674:1735  require(msg.value != 0, \"Donation must be greater than zero\") */\n      0x04\n      dup3\n      add\n        /* \"#utility.yul\":6958:6979   */\n      mstore\n        /* \"#utility.yul\":7015:7017   */\n      0x22\n        /* \"#utility.yul\":6995:7013   */\n      0x24\n      dup3\n      add\n        /* \"#utility.yul\":6988:7018   */\n      mstore\n        /* \"#utility.yul\":7054:7088   */\n      0x446f6e6174696f6e206d7573742062652067726561746572207468616e207a65\n        /* \"#utility.yul\":7034:7052   */\n      0x44\n      dup3\n      add\n        /* \"#utility.yul\":7027:7089   */\n      mstore\n      shl(0xf0, 0x726f)\n        /* \"#utility.yul\":7105:7123   */\n      0x64\n      dup3\n      add\n        /* \"#utility.yul\":7098:7130   */\n      mstore\n        /* \"#utility.yul\":7147:7166   */\n      0x84\n      add\n        /* \"contracts/DonateCrypto.sol\":1674:1735  require(msg.value != 0, \"Donation must be greater than zero\") */\n      tag_66\n        /* \"#utility.yul\":6774:7172   */\n      jump\n        /* \"contracts/DonateCrypto.sol\":1674:1735  require(msg.value != 0, \"Donation must be greater than zero\") */\n    tag_93:\n        /* \"contracts/DonateCrypto.sol\":1756:1769  campaigns[id] */\n      0x00\n      dup2\n      dup2\n      mstore\n        /* \"contracts/DonateCrypto.sol\":1756:1765  campaigns */\n      0x02\n        /* \"contracts/DonateCrypto.sol\":1756:1769  campaigns[id] */\n      0x20\n      mstore\n      0x40\n      dup2\n      keccak256\n        /* \"contracts/DonateCrypto.sol\":1756:1777  campaigns[id].balance */\n      0x06\n      add\n        /* \"contracts/DonateCrypto.sol\":1756:1790  campaigns[id].balance += msg.value */\n      dup1\n      sload\n        /* \"contracts/DonateCrypto.sol\":1781:1790  msg.value */\n      callvalue\n      swap3\n        /* \"contracts/DonateCrypto.sol\":1756:1769  campaigns[id] */\n      swap1\n        /* \"contracts/DonateCrypto.sol\":1756:1790  campaigns[id].balance += msg.value */\n      tag_96\n      swap1\n        /* \"contracts/DonateCrypto.sol\":1781:1790  msg.value */\n      dup5\n      swap1\n        /* \"contracts/DonateCrypto.sol\":1756:1790  campaigns[id].balance += msg.value */\n      tag_97\n      jump\t// in\n    tag_96:\n      swap1\n      swap2\n      sstore\n      pop\n      pop\n      pop\n        /* \"contracts/DonateCrypto.sol\":1554:1798  function donate(uint256 id) public payable {... */\n      jump\t// out\n        /* \"contracts/DonateCrypto.sol\":1002:1546  function addCampaign(... */\n    tag_42:\n        /* \"contracts/DonateCrypto.sol\":1241:1517  Campaign({... */\n      mload(0x40)\n      dup1\n      0x0100\n      add\n      0x40\n      mstore\n      dup1\n        /* \"contracts/DonateCrypto.sol\":1274:1284  msg.sender */\n      caller\n      sub(shl(0xa0, 0x01), 0x01)\n        /* \"contracts/DonateCrypto.sol\":1241:1517  Campaign({... */\n      and\n      dup2\n      mstore\n      0x20\n      add\n        /* \"contracts/DonateCrypto.sol\":1311:1321  goalAmount */\n      dup11\n        /* \"contracts/DonateCrypto.sol\":1241:1517  Campaign({... */\n      dup2\n      mstore\n      0x20\n      add\n        /* \"contracts/DonateCrypto.sol\":1343:1348  title */\n      dup10\n      dup10\n        /* \"contracts/DonateCrypto.sol\":1241:1517  Campaign({... */\n      dup1\n      dup1\n      0x1f\n      add\n      0x20\n      dup1\n      swap2\n      div\n      mul\n      0x20\n      add\n      mload(0x40)\n      swap1\n      dup2\n      add\n      0x40\n      mstore\n      dup1\n      swap4\n      swap3\n      swap2\n      swap1\n      dup2\n      dup2\n      mstore\n      0x20\n      add\n      dup4\n      dup4\n      dup1\n      dup3\n      dup5\n      calldatacopy\n      0x00\n      swap3\n      add\n      swap2\n      swap1\n      swap2\n      mstore\n      pop\n      pop\n      pop\n      swap1\n      dup3\n      mstore\n      pop\n      0x40\n      dup1\n      mload\n      0x20\n      0x1f\n      dup11\n      add\n      dup2\n      swap1\n      div\n      dup2\n      mul\n      dup3\n      add\n      dup2\n      add\n      swap1\n      swap3\n      mstore\n      dup9\n      dup2\n      mstore\n      swap2\n      dup2\n      add\n      swap2\n      swap1\n        /* \"contracts/DonateCrypto.sol\":1376:1387  description */\n      dup10\n      swap1\n      dup10\n      swap1\n      dup2\n      swap1\n        /* \"contracts/DonateCrypto.sol\":1241:1517  Campaign({... */\n      dup5\n      add\n        /* \"contracts/DonateCrypto.sol\":1376:1387  description */\n      dup4\n      dup3\n      dup1\n      dup3\n        /* \"contracts/DonateCrypto.sol\":1241:1517  Campaign({... */\n      dup5\n      calldatacopy\n      0x00\n      swap3\n      add\n      swap2\n      swap1\n      swap2\n      mstore\n      pop\n      pop\n      pop\n      swap1\n      dup3\n      mstore\n      pop\n      0x40\n      dup1\n      mload\n      0x20\n      0x1f\n      dup9\n      add\n      dup2\n      swap1\n      div\n      dup2\n      mul\n      dup3\n      add\n      dup2\n      add\n      swap1\n      swap3\n      mstore\n      dup7\n      dup2\n      mstore\n      swap2\n      dup2\n      add\n      swap2\n      swap1\n        /* \"contracts/DonateCrypto.sol\":1412:1420  videoUrl */\n      dup8\n      swap1\n      dup8\n      swap1\n      dup2\n      swap1\n        /* \"contracts/DonateCrypto.sol\":1241:1517  Campaign({... */\n      dup5\n      add\n        /* \"contracts/DonateCrypto.sol\":1412:1420  videoUrl */\n      dup4\n      dup3\n      dup1\n      dup3\n        /* \"contracts/DonateCrypto.sol\":1241:1517  Campaign({... */\n      dup5\n      calldatacopy\n      0x00\n      swap3\n      add\n      swap2\n      swap1\n      swap2\n      mstore\n      pop\n      pop\n      pop\n      swap1\n      dup3\n      mstore\n      pop\n      0x40\n      dup1\n      mload\n      0x20\n      0x1f\n      dup7\n      add\n      dup2\n      swap1\n      div\n      dup2\n      mul\n      dup3\n      add\n      dup2\n      add\n      swap1\n      swap3\n      mstore\n      dup5\n      dup2\n      mstore\n      swap2\n      dup2\n      add\n      swap2\n      swap1\n        /* \"contracts/DonateCrypto.sol\":1445:1453  imageUrl */\n      dup6\n      swap1\n      dup6\n      swap1\n      dup2\n      swap1\n        /* \"contracts/DonateCrypto.sol\":1241:1517  Campaign({... */\n      dup5\n      add\n        /* \"contracts/DonateCrypto.sol\":1445:1453  imageUrl */\n      dup4\n      dup3\n      dup1\n      dup3\n        /* \"contracts/DonateCrypto.sol\":1241:1517  Campaign({... */\n      dup5\n      calldatacopy\n      0x00\n      swap3\n      add\n      dup3\n      swap1\n      mstore\n      pop\n      swap4\n      dup6\n      mstore\n      pop\n      pop\n      pop\n      0x20\n      dup1\n      dup4\n      add\n      dup3\n      swap1\n      mstore\n        /* \"contracts/DonateCrypto.sol\":1501:1505  true */\n      0x01\n        /* \"contracts/DonateCrypto.sol\":1241:1517  Campaign({... */\n      0x40\n      swap4\n      dup5\n      add\n      dup2\n      swap1\n      mstore\n        /* \"contracts/DonateCrypto.sol\":1231:1237  nextId */\n      dup1\n      sload\n        /* \"contracts/DonateCrypto.sol\":1221:1238  campaigns[nextId] */\n      dup4\n      mstore\n        /* \"contracts/DonateCrypto.sol\":1221:1230  campaigns */\n      0x02\n        /* \"contracts/DonateCrypto.sol\":1221:1238  campaigns[nextId] */\n      dup1\n      dup4\n      mstore\n      swap3\n      dup5\n      swap1\n      keccak256\n        /* \"contracts/DonateCrypto.sol\":1221:1517  campaigns[nextId] = Campaign({... */\n      dup6\n      mload\n      dup2\n      sload\n      not(sub(shl(0xa0, 0x01), 0x01))\n      and\n      sub(shl(0xa0, 0x01), 0x01)\n      swap1\n      swap2\n      and\n      or\n      dup2\n      sstore\n      swap2\n      dup6\n      add\n      mload\n      swap1\n      dup3\n      add\n      sstore\n      swap2\n      dup4\n      add\n      mload\n      swap1\n      dup3\n      add\n      swap1\n      tag_99\n      swap1\n      dup3\n      tag_100\n      jump\t// in\n    tag_99:\n      pop\n      0x60\n      dup3\n      add\n      mload\n      0x03\n      dup3\n      add\n      swap1\n      tag_101\n      swap1\n      dup3\n      tag_100\n      jump\t// in\n    tag_101:\n      pop\n      0x80\n      dup3\n      add\n      mload\n      0x04\n      dup3\n      add\n      swap1\n      tag_102\n      swap1\n      dup3\n      tag_100\n      jump\t// in\n    tag_102:\n      pop\n      0xa0\n      dup3\n      add\n      mload\n      0x05\n      dup3\n      add\n      swap1\n      tag_103\n      swap1\n      dup3\n      tag_100\n      jump\t// in\n    tag_103:\n      pop\n      0xc0\n      dup3\n      add\n      mload\n      0x06\n      dup3\n      add\n      sstore\n      0xe0\n      swap1\n      swap2\n      add\n      mload\n      0x07\n      swap1\n      swap2\n      add\n      dup1\n      sload\n      not(0xff)\n      and\n      swap2\n      iszero\n      iszero\n      swap2\n      swap1\n      swap2\n      or\n      swap1\n      sstore\n      0x01\n        /* \"contracts/DonateCrypto.sol\":1530:1538  nextId++ */\n      dup1\n      sload\n      swap1\n      0x00\n      tag_104\n      dup4\n      tag_105\n      jump\t// in\n    tag_104:\n      swap2\n      swap1\n      pop\n      sstore\n      pop\n        /* \"contracts/DonateCrypto.sol\":1002:1546  function addCampaign(... */\n      pop\n      pop\n      pop\n      pop\n      pop\n      pop\n      pop\n      pop\n      pop\n      jump\t// out\n        /* \"#utility.yul\":14:240   */\n    tag_13:\n        /* \"#utility.yul\":73:79   */\n      0x00\n        /* \"#utility.yul\":126:128   */\n      0x20\n        /* \"#utility.yul\":114:123   */\n      dup3\n        /* \"#utility.yul\":105:112   */\n      dup5\n        /* \"#utility.yul\":101:124   */\n      sub\n        /* \"#utility.yul\":97:129   */\n      slt\n        /* \"#utility.yul\":94:146   */\n      iszero\n      tag_115\n      jumpi\n        /* \"#utility.yul\":142:143   */\n      0x00\n        /* \"#utility.yul\":139:140   */\n      dup1\n        /* \"#utility.yul\":132:144   */\n      revert\n        /* \"#utility.yul\":94:146   */\n    tag_115:\n      pop\n        /* \"#utility.yul\":187:210   */\n      calldataload\n      swap2\n        /* \"#utility.yul\":14:240   */\n      swap1\n      pop\n      jump\t// out\n        /* \"#utility.yul\":245:534   */\n    tag_106:\n        /* \"#utility.yul\":287:290   */\n      0x00\n        /* \"#utility.yul\":325:330   */\n      dup2\n        /* \"#utility.yul\":319:331   */\n      mload\n        /* \"#utility.yul\":352:358   */\n      dup1\n        /* \"#utility.yul\":347:350   */\n      dup5\n        /* \"#utility.yul\":340:359   */\n      mstore\n        /* \"#utility.yul\":408:414   */\n      dup1\n        /* \"#utility.yul\":401:405   */\n      0x20\n        /* \"#utility.yul\":394:399   */\n      dup5\n        /* \"#utility.yul\":390:406   */\n      add\n        /* \"#utility.yul\":383:387   */\n      0x20\n        /* \"#utility.yul\":378:381   */\n      dup7\n        /* \"#utility.yul\":374:388   */\n      add\n        /* \"#utility.yul\":368:415   */\n      mcopy\n        /* \"#utility.yul\":460:461   */\n      0x00\n        /* \"#utility.yul\":453:457   */\n      0x20\n        /* \"#utility.yul\":444:450   */\n      dup3\n        /* \"#utility.yul\":439:442   */\n      dup7\n        /* \"#utility.yul\":435:451   */\n      add\n        /* \"#utility.yul\":431:458   */\n      add\n        /* \"#utility.yul\":424:462   */\n      mstore\n        /* \"#utility.yul\":523:527   */\n      0x20\n        /* \"#utility.yul\":516:518   */\n      0x1f\n        /* \"#utility.yul\":512:519   */\n      not\n        /* \"#utility.yul\":507:509   */\n      0x1f\n        /* \"#utility.yul\":499:505   */\n      dup4\n        /* \"#utility.yul\":495:510   */\n      add\n        /* \"#utility.yul\":491:520   */\n      and\n        /* \"#utility.yul\":486:489   */\n      dup6\n        /* \"#utility.yul\":482:521   */\n      add\n        /* \"#utility.yul\":478:528   */\n      add\n        /* \"#utility.yul\":471:528   */\n      swap2\n      pop\n      pop\n        /* \"#utility.yul\":245:534   */\n      swap3\n      swap2\n      pop\n      pop\n      jump\t// out\n        /* \"#utility.yul\":539:1574   */\n    tag_16:\n        /* \"#utility.yul\":967:968   */\n      0x01\n        /* \"#utility.yul\":963:964   */\n      dup1\n        /* \"#utility.yul\":958:961   */\n      0xa0\n        /* \"#utility.yul\":954:965   */\n      shl\n        /* \"#utility.yul\":950:969   */\n      sub\n        /* \"#utility.yul\":942:948   */\n      dup10\n        /* \"#utility.yul\":938:970   */\n      and\n        /* \"#utility.yul\":927:936   */\n      dup2\n        /* \"#utility.yul\":920:971   */\n      mstore\n        /* \"#utility.yul\":1007:1013   */\n      dup8\n        /* \"#utility.yul\":1002:1004   */\n      0x20\n        /* \"#utility.yul\":991:1000   */\n      dup3\n        /* \"#utility.yul\":987:1005   */\n      add\n        /* \"#utility.yul\":980:1014   */\n      mstore\n        /* \"#utility.yul\":1050:1053   */\n      0x0100\n        /* \"#utility.yul\":1045:1047   */\n      0x40\n        /* \"#utility.yul\":1034:1043   */\n      dup3\n        /* \"#utility.yul\":1030:1048   */\n      add\n        /* \"#utility.yul\":1023:1054   */\n      mstore\n        /* \"#utility.yul\":901:905   */\n      0x00\n        /* \"#utility.yul\":1077:1123   */\n      tag_118\n        /* \"#utility.yul\":1118:1121   */\n      0x0100\n        /* \"#utility.yul\":1107:1116   */\n      dup4\n        /* \"#utility.yul\":1103:1122   */\n      add\n        /* \"#utility.yul\":1095:1101   */\n      dup10\n        /* \"#utility.yul\":1077:1123   */\n      tag_106\n      jump\t// in\n    tag_118:\n        /* \"#utility.yul\":1171:1180   */\n      dup3\n        /* \"#utility.yul\":1163:1169   */\n      dup2\n        /* \"#utility.yul\":1159:1181   */\n      sub\n        /* \"#utility.yul\":1154:1156   */\n      0x60\n        /* \"#utility.yul\":1143:1152   */\n      dup5\n        /* \"#utility.yul\":1139:1157   */\n      add\n        /* \"#utility.yul\":1132:1182   */\n      mstore\n        /* \"#utility.yul\":1205:1238   */\n      tag_119\n        /* \"#utility.yul\":1231:1237   */\n      dup2\n        /* \"#utility.yul\":1223:1229   */\n      dup10\n        /* \"#utility.yul\":1205:1238   */\n      tag_106\n      jump\t// in\n    tag_119:\n        /* \"#utility.yul\":1191:1238   */\n      swap1\n      pop\n        /* \"#utility.yul\":1287:1296   */\n      dup3\n        /* \"#utility.yul\":1279:1285   */\n      dup2\n        /* \"#utility.yul\":1275:1297   */\n      sub\n        /* \"#utility.yul\":1269:1272   */\n      0x80\n        /* \"#utility.yul\":1258:1267   */\n      dup5\n        /* \"#utility.yul\":1254:1273   */\n      add\n        /* \"#utility.yul\":1247:1298   */\n      mstore\n        /* \"#utility.yul\":1321:1354   */\n      tag_120\n        /* \"#utility.yul\":1347:1353   */\n      dup2\n        /* \"#utility.yul\":1339:1345   */\n      dup9\n        /* \"#utility.yul\":1321:1354   */\n      tag_106\n      jump\t// in\n    tag_120:\n        /* \"#utility.yul\":1307:1354   */\n      swap1\n      pop\n        /* \"#utility.yul\":1403:1412   */\n      dup3\n        /* \"#utility.yul\":1395:1401   */\n      dup2\n        /* \"#utility.yul\":1391:1413   */\n      sub\n        /* \"#utility.yul\":1385:1388   */\n      0xa0\n        /* \"#utility.yul\":1374:1383   */\n      dup5\n        /* \"#utility.yul\":1370:1389   */\n      add\n        /* \"#utility.yul\":1363:1414   */\n      mstore\n        /* \"#utility.yul\":1431:1464   */\n      tag_121\n        /* \"#utility.yul\":1457:1463   */\n      dup2\n        /* \"#utility.yul\":1449:1455   */\n      dup8\n        /* \"#utility.yul\":1431:1464   */\n      tag_106\n      jump\t// in\n    tag_121:\n        /* \"#utility.yul\":1495:1498   */\n      0xc0\n        /* \"#utility.yul\":1480:1499   */\n      dup5\n      add\n        /* \"#utility.yul\":1473:1508   */\n      swap6\n      swap1\n      swap6\n      mstore\n      pop\n      pop\n        /* \"#utility.yul\":1552:1566   */\n      swap1\n      iszero\n        /* \"#utility.yul\":1545:1567   */\n      iszero\n        /* \"#utility.yul\":1539:1542   */\n      0xe0\n        /* \"#utility.yul\":1524:1543   */\n      swap1\n      swap2\n      add\n        /* \"#utility.yul\":1517:1568   */\n      mstore\n        /* \"#utility.yul\":1423:1464   */\n      swap7\n        /* \"#utility.yul\":539:1574   */\n      swap6\n      pop\n      pop\n      pop\n      pop\n      pop\n      pop\n      jump\t// out\n        /* \"#utility.yul\":1969:2317   */\n    tag_107:\n        /* \"#utility.yul\":2021:2029   */\n      0x00\n        /* \"#utility.yul\":2031:2037   */\n      dup1\n        /* \"#utility.yul\":2085:2088   */\n      dup4\n        /* \"#utility.yul\":2078:2082   */\n      0x1f\n        /* \"#utility.yul\":2070:2076   */\n      dup5\n        /* \"#utility.yul\":2066:2083   */\n      add\n        /* \"#utility.yul\":2062:2089   */\n      slt\n        /* \"#utility.yul\":2052:2107   */\n      tag_125\n      jumpi\n        /* \"#utility.yul\":2103:2104   */\n      0x00\n        /* \"#utility.yul\":2100:2101   */\n      dup1\n        /* \"#utility.yul\":2093:2105   */\n      revert\n        /* \"#utility.yul\":2052:2107   */\n    tag_125:\n      pop\n        /* \"#utility.yul\":2126:2146   */\n      dup2\n      calldataload\n        /* \"#utility.yul\":2169:2187   */\n      0xffffffffffffffff\n        /* \"#utility.yul\":2158:2188   */\n      dup2\n      gt\n        /* \"#utility.yul\":2155:2205   */\n      iszero\n      tag_126\n      jumpi\n        /* \"#utility.yul\":2201:2202   */\n      0x00\n        /* \"#utility.yul\":2198:2199   */\n      dup1\n        /* \"#utility.yul\":2191:2203   */\n      revert\n        /* \"#utility.yul\":2155:2205   */\n    tag_126:\n        /* \"#utility.yul\":2238:2242   */\n      0x20\n        /* \"#utility.yul\":2230:2236   */\n      dup4\n        /* \"#utility.yul\":2226:2243   */\n      add\n        /* \"#utility.yul\":2214:2243   */\n      swap2\n      pop\n        /* \"#utility.yul\":2290:2293   */\n      dup4\n        /* \"#utility.yul\":2283:2287   */\n      0x20\n        /* \"#utility.yul\":2274:2280   */\n      dup3\n        /* \"#utility.yul\":2266:2272   */\n      dup6\n        /* \"#utility.yul\":2262:2281   */\n      add\n        /* \"#utility.yul\":2258:2288   */\n      add\n        /* \"#utility.yul\":2255:2294   */\n      gt\n        /* \"#utility.yul\":2252:2311   */\n      iszero\n      tag_127\n      jumpi\n        /* \"#utility.yul\":2307:2308   */\n      0x00\n        /* \"#utility.yul\":2304:2305   */\n      dup1\n        /* \"#utility.yul\":2297:2309   */\n      revert\n        /* \"#utility.yul\":2252:2311   */\n    tag_127:\n        /* \"#utility.yul\":1969:2317   */\n      swap3\n      pop\n      swap3\n      swap1\n      pop\n      jump\t// out\n        /* \"#utility.yul\":2322:3764   */\n    tag_41:\n        /* \"#utility.yul\":2465:2471   */\n      0x00\n        /* \"#utility.yul\":2473:2479   */\n      dup1\n        /* \"#utility.yul\":2481:2487   */\n      0x00\n        /* \"#utility.yul\":2489:2495   */\n      dup1\n        /* \"#utility.yul\":2497:2503   */\n      0x00\n        /* \"#utility.yul\":2505:2511   */\n      dup1\n        /* \"#utility.yul\":2513:2519   */\n      0x00\n        /* \"#utility.yul\":2521:2527   */\n      dup1\n        /* \"#utility.yul\":2529:2535   */\n      0x00\n        /* \"#utility.yul\":2582:2585   */\n      0xa0\n        /* \"#utility.yul\":2570:2579   */\n      dup11\n        /* \"#utility.yul\":2561:2568   */\n      dup13\n        /* \"#utility.yul\":2557:2580   */\n      sub\n        /* \"#utility.yul\":2553:2586   */\n      slt\n        /* \"#utility.yul\":2550:2603   */\n      iszero\n      tag_129\n      jumpi\n        /* \"#utility.yul\":2599:2600   */\n      0x00\n        /* \"#utility.yul\":2596:2597   */\n      dup1\n        /* \"#utility.yul\":2589:2601   */\n      revert\n        /* \"#utility.yul\":2550:2603   */\n    tag_129:\n        /* \"#utility.yul\":2644:2667   */\n      dup10\n      calldataload\n      swap9\n      pop\n        /* \"#utility.yul\":2742:2744   */\n      0x20\n        /* \"#utility.yul\":2727:2745   */\n      dup11\n      add\n        /* \"#utility.yul\":2714:2746   */\n      calldataload\n        /* \"#utility.yul\":2769:2787   */\n      0xffffffffffffffff\n        /* \"#utility.yul\":2758:2788   */\n      dup2\n      gt\n        /* \"#utility.yul\":2755:2805   */\n      iszero\n      tag_130\n      jumpi\n        /* \"#utility.yul\":2801:2802   */\n      0x00\n        /* \"#utility.yul\":2798:2799   */\n      dup1\n        /* \"#utility.yul\":2791:2803   */\n      revert\n        /* \"#utility.yul\":2755:2805   */\n    tag_130:\n        /* \"#utility.yul\":2840:2899   */\n      tag_131\n        /* \"#utility.yul\":2891:2898   */\n      dup13\n        /* \"#utility.yul\":2882:2888   */\n      dup3\n        /* \"#utility.yul\":2871:2880   */\n      dup14\n        /* \"#utility.yul\":2867:2889   */\n      add\n        /* \"#utility.yul\":2840:2899   */\n      tag_107\n      jump\t// in\n    tag_131:\n        /* \"#utility.yul\":2918:2926   */\n      swap1\n      swap10\n      pop\n        /* \"#utility.yul\":2814:2899   */\n      swap8\n      pop\n      pop\n        /* \"#utility.yul\":3006:3008   */\n      0x40\n        /* \"#utility.yul\":2991:3009   */\n      dup11\n      add\n        /* \"#utility.yul\":2978:3010   */\n      calldataload\n        /* \"#utility.yul\":3035:3053   */\n      0xffffffffffffffff\n        /* \"#utility.yul\":3022:3054   */\n      dup2\n      gt\n        /* \"#utility.yul\":3019:3071   */\n      iszero\n      tag_132\n      jumpi\n        /* \"#utility.yul\":3067:3068   */\n      0x00\n        /* \"#utility.yul\":3064:3065   */\n      dup1\n        /* \"#utility.yul\":3057:3069   */\n      revert\n        /* \"#utility.yul\":3019:3071   */\n    tag_132:\n        /* \"#utility.yul\":3106:3167   */\n      tag_133\n        /* \"#utility.yul\":3159:3166   */\n      dup13\n        /* \"#utility.yul\":3148:3156   */\n      dup3\n        /* \"#utility.yul\":3137:3146   */\n      dup14\n        /* \"#utility.yul\":3133:3157   */\n      add\n        /* \"#utility.yul\":3106:3167   */\n      tag_107\n      jump\t// in\n    tag_133:\n        /* \"#utility.yul\":3186:3194   */\n      swap1\n      swap8\n      pop\n        /* \"#utility.yul\":3080:3167   */\n      swap6\n      pop\n      pop\n        /* \"#utility.yul\":3274:3276   */\n      0x60\n        /* \"#utility.yul\":3259:3277   */\n      dup11\n      add\n        /* \"#utility.yul\":3246:3278   */\n      calldataload\n        /* \"#utility.yul\":3303:3321   */\n      0xffffffffffffffff\n        /* \"#utility.yul\":3290:3322   */\n      dup2\n      gt\n        /* \"#utility.yul\":3287:3339   */\n      iszero\n      tag_134\n      jumpi\n        /* \"#utility.yul\":3335:3336   */\n      0x00\n        /* \"#utility.yul\":3332:3333   */\n      dup1\n        /* \"#utility.yul\":3325:3337   */\n      revert\n        /* \"#utility.yul\":3287:3339   */\n    tag_134:\n        /* \"#utility.yul\":3374:3435   */\n      tag_135\n        /* \"#utility.yul\":3427:3434   */\n      dup13\n        /* \"#utility.yul\":3416:3424   */\n      dup3\n        /* \"#utility.yul\":3405:3414   */\n      dup14\n        /* \"#utility.yul\":3401:3425   */\n      add\n        /* \"#utility.yul\":3374:3435   */\n      tag_107\n      jump\t// in\n    tag_135:\n        /* \"#utility.yul\":3454:3462   */\n      swap1\n      swap6\n      pop\n        /* \"#utility.yul\":3348:3435   */\n      swap4\n      pop\n      pop\n        /* \"#utility.yul\":3542:3545   */\n      0x80\n        /* \"#utility.yul\":3527:3546   */\n      dup11\n      add\n        /* \"#utility.yul\":3514:3547   */\n      calldataload\n        /* \"#utility.yul\":3572:3590   */\n      0xffffffffffffffff\n        /* \"#utility.yul\":3559:3591   */\n      dup2\n      gt\n        /* \"#utility.yul\":3556:3608   */\n      iszero\n      tag_136\n      jumpi\n        /* \"#utility.yul\":3604:3605   */\n      0x00\n        /* \"#utility.yul\":3601:3602   */\n      dup1\n        /* \"#utility.yul\":3594:3606   */\n      revert\n        /* \"#utility.yul\":3556:3608   */\n    tag_136:\n        /* \"#utility.yul\":3643:3704   */\n      tag_137\n        /* \"#utility.yul\":3696:3703   */\n      dup13\n        /* \"#utility.yul\":3685:3693   */\n      dup3\n        /* \"#utility.yul\":3674:3683   */\n      dup14\n        /* \"#utility.yul\":3670:3694   */\n      add\n        /* \"#utility.yul\":3643:3704   */\n      tag_107\n      jump\t// in\n    tag_137:\n        /* \"#utility.yul\":3617:3704   */\n      swap2\n      pop\n        /* \"#utility.yul\":3723:3731   */\n      dup1\n        /* \"#utility.yul\":3713:3731   */\n      swap4\n      pop\n      pop\n        /* \"#utility.yul\":3750:3758   */\n      dup1\n        /* \"#utility.yul\":3740:3758   */\n      swap2\n      pop\n      pop\n        /* \"#utility.yul\":2322:3764   */\n      swap3\n      swap6\n      swap9\n      pop\n      swap3\n      swap6\n      swap9\n      pop\n      swap3\n      swap6\n      swap9\n      jump\t// out\n        /* \"#utility.yul\":3769:4149   */\n    tag_44:\n        /* \"#utility.yul\":3848:3849   */\n      0x01\n        /* \"#utility.yul\":3844:3856   */\n      dup2\n      dup2\n      shr\n      swap1\n        /* \"#utility.yul\":3891:3903   */\n      dup3\n      and\n      dup1\n        /* \"#utility.yul\":3912:3973   */\n      tag_139\n      jumpi\n        /* \"#utility.yul\":3966:3970   */\n      0x7f\n        /* \"#utility.yul\":3958:3964   */\n      dup3\n        /* \"#utility.yul\":3954:3971   */\n      and\n        /* \"#utility.yul\":3944:3971   */\n      swap2\n      pop\n        /* \"#utility.yul\":3912:3973   */\n    tag_139:\n        /* \"#utility.yul\":4019:4021   */\n      0x20\n        /* \"#utility.yul\":4011:4017   */\n      dup3\n        /* \"#utility.yul\":4008:4022   */\n      lt\n        /* \"#utility.yul\":3988:4006   */\n      dup2\n        /* \"#utility.yul\":3985:4023   */\n      sub\n        /* \"#utility.yul\":3982:4143   */\n      tag_140\n      jumpi\n        /* \"#utility.yul\":4065:4075   */\n      0x4e487b71\n        /* \"#utility.yul\":4060:4063   */\n      0xe0\n        /* \"#utility.yul\":4056:4076   */\n      shl\n        /* \"#utility.yul\":4053:4054   */\n      0x00\n        /* \"#utility.yul\":4046:4077   */\n      mstore\n        /* \"#utility.yul\":4100:4104   */\n      0x22\n        /* \"#utility.yul\":4097:4098   */\n      0x04\n        /* \"#utility.yul\":4090:4105   */\n      mstore\n        /* \"#utility.yul\":4128:4132   */\n      0x24\n        /* \"#utility.yul\":4125:4126   */\n      0x00\n        /* \"#utility.yul\":4118:4133   */\n      revert\n        /* \"#utility.yul\":3982:4143   */\n    tag_140:\n      pop\n        /* \"#utility.yul\":3769:4149   */\n      swap2\n      swap1\n      pop\n      jump\t// out\n        /* \"#utility.yul\":5601:5728   */\n    tag_108:\n        /* \"#utility.yul\":5662:5672   */\n      0x4e487b71\n        /* \"#utility.yul\":5657:5660   */\n      0xe0\n        /* \"#utility.yul\":5653:5673   */\n      shl\n        /* \"#utility.yul\":5650:5651   */\n      0x00\n        /* \"#utility.yul\":5643:5674   */\n      mstore\n        /* \"#utility.yul\":5693:5697   */\n      0x11\n        /* \"#utility.yul\":5690:5691   */\n      0x04\n        /* \"#utility.yul\":5683:5698   */\n      mstore\n        /* \"#utility.yul\":5717:5721   */\n      0x24\n        /* \"#utility.yul\":5714:5715   */\n      0x00\n        /* \"#utility.yul\":5707:5722   */\n      revert\n        /* \"#utility.yul\":5733:5861   */\n    tag_80:\n        /* \"#utility.yul\":5800:5809   */\n      dup2\n      dup2\n      sub\n        /* \"#utility.yul\":5821:5832   */\n      dup2\n      dup2\n      gt\n        /* \"#utility.yul\":5818:5855   */\n      iszero\n      tag_148\n      jumpi\n        /* \"#utility.yul\":5835:5853   */\n      tag_148\n      tag_108\n      jump\t// in\n    tag_148:\n        /* \"#utility.yul\":5733:5861   */\n      swap3\n      swap2\n      pop\n      pop\n      jump\t// out\n        /* \"#utility.yul\":7177:7302   */\n    tag_97:\n        /* \"#utility.yul\":7242:7251   */\n      dup1\n      dup3\n      add\n        /* \"#utility.yul\":7263:7273   */\n      dup1\n      dup3\n      gt\n        /* \"#utility.yul\":7260:7296   */\n      iszero\n      tag_148\n      jumpi\n        /* \"#utility.yul\":7276:7294   */\n      tag_148\n      tag_108\n      jump\t// in\n        /* \"#utility.yul\":7307:7434   */\n    tag_109:\n        /* \"#utility.yul\":7368:7378   */\n      0x4e487b71\n        /* \"#utility.yul\":7363:7366   */\n      0xe0\n        /* \"#utility.yul\":7359:7379   */\n      shl\n        /* \"#utility.yul\":7356:7357   */\n      0x00\n        /* \"#utility.yul\":7349:7380   */\n      mstore\n        /* \"#utility.yul\":7399:7403   */\n      0x41\n        /* \"#utility.yul\":7396:7397   */\n      0x04\n        /* \"#utility.yul\":7389:7404   */\n      mstore\n        /* \"#utility.yul\":7423:7427   */\n      0x24\n        /* \"#utility.yul\":7420:7421   */\n      0x00\n        /* \"#utility.yul\":7413:7428   */\n      revert\n        /* \"#utility.yul\":7565:8083   */\n    tag_111:\n        /* \"#utility.yul\":7667:7669   */\n      0x1f\n        /* \"#utility.yul\":7662:7665   */\n      dup3\n        /* \"#utility.yul\":7659:7670   */\n      gt\n        /* \"#utility.yul\":7656:8077   */\n      iszero\n      tag_159\n      jumpi\n        /* \"#utility.yul\":7703:7708   */\n      dup1\n        /* \"#utility.yul\":7700:7701   */\n      0x00\n        /* \"#utility.yul\":7693:7709   */\n      mstore\n        /* \"#utility.yul\":7747:7751   */\n      0x20\n        /* \"#utility.yul\":7744:7745   */\n      0x00\n        /* \"#utility.yul\":7734:7752   */\n      keccak256\n        /* \"#utility.yul\":7817:7819   */\n      0x1f\n        /* \"#utility.yul\":7805:7815   */\n      dup5\n        /* \"#utility.yul\":7801:7820   */\n      add\n        /* \"#utility.yul\":7798:7799   */\n      0x05\n        /* \"#utility.yul\":7794:7821   */\n      shr\n        /* \"#utility.yul\":7788:7792   */\n      dup2\n        /* \"#utility.yul\":7784:7822   */\n      add\n        /* \"#utility.yul\":7853:7857   */\n      0x20\n        /* \"#utility.yul\":7841:7851   */\n      dup6\n        /* \"#utility.yul\":7838:7858   */\n      lt\n        /* \"#utility.yul\":7835:7882   */\n      iszero\n      tag_160\n      jumpi\n      pop\n        /* \"#utility.yul\":7876:7880   */\n      dup1\n        /* \"#utility.yul\":7835:7882   */\n    tag_160:\n        /* \"#utility.yul\":7931:7933   */\n      0x1f\n        /* \"#utility.yul\":7926:7929   */\n      dup5\n        /* \"#utility.yul\":7922:7934   */\n      add\n        /* \"#utility.yul\":7919:7920   */\n      0x05\n        /* \"#utility.yul\":7915:7935   */\n      shr\n        /* \"#utility.yul\":7909:7913   */\n      dup3\n        /* \"#utility.yul\":7905:7936   */\n      add\n        /* \"#utility.yul\":7895:7936   */\n      swap2\n      pop\n        /* \"#utility.yul\":7986:8067   */\n    tag_161:\n        /* \"#utility.yul\":8004:8006   */\n      dup2\n        /* \"#utility.yul\":7997:8002   */\n      dup2\n        /* \"#utility.yul\":7994:8007   */\n      lt\n        /* \"#utility.yul\":7986:8067   */\n      iszero\n      tag_163\n      jumpi\n        /* \"#utility.yul\":8063:8064   */\n      0x00\n        /* \"#utility.yul\":8049:8065   */\n      dup2\n      sstore\n        /* \"#utility.yul\":8030:8031   */\n      0x01\n        /* \"#utility.yul\":8019:8032   */\n      add\n        /* \"#utility.yul\":7986:8067   */\n      jump(tag_161)\n    tag_163:\n        /* \"#utility.yul\":7990:7993   */\n      pop\n      pop\n        /* \"#utility.yul\":7656:8077   */\n    tag_159:\n        /* \"#utility.yul\":7565:8083   */\n      pop\n      pop\n      pop\n      jump\t// out\n        /* \"#utility.yul\":8259:9558   */\n    tag_100:\n        /* \"#utility.yul\":8385:8388   */\n      dup2\n        /* \"#utility.yul\":8379:8389   */\n      mload\n        /* \"#utility.yul\":8412:8430   */\n      0xffffffffffffffff\n        /* \"#utility.yul\":8404:8410   */\n      dup2\n        /* \"#utility.yul\":8401:8431   */\n      gt\n        /* \"#utility.yul\":8398:8454   */\n      iszero\n      tag_167\n      jumpi\n        /* \"#utility.yul\":8434:8452   */\n      tag_167\n      tag_109\n      jump\t// in\n    tag_167:\n        /* \"#utility.yul\":8463:8560   */\n      tag_168\n        /* \"#utility.yul\":8553:8559   */\n      dup2\n        /* \"#utility.yul\":8513:8551   */\n      tag_169\n        /* \"#utility.yul\":8545:8549   */\n      dup5\n        /* \"#utility.yul\":8539:8550   */\n      sload\n        /* \"#utility.yul\":8513:8551   */\n      tag_44\n      jump\t// in\n    tag_169:\n        /* \"#utility.yul\":8507:8511   */\n      dup5\n        /* \"#utility.yul\":8463:8560   */\n      tag_111\n      jump\t// in\n    tag_168:\n        /* \"#utility.yul\":8609:8613   */\n      0x20\n        /* \"#utility.yul\":8640:8642   */\n      0x1f\n        /* \"#utility.yul\":8629:8643   */\n      dup3\n      gt\n        /* \"#utility.yul\":8657:8658   */\n      0x01\n        /* \"#utility.yul\":8652:9301   */\n      dup2\n      eq\n      tag_171\n      jumpi\n        /* \"#utility.yul\":9345:9346   */\n      0x00\n        /* \"#utility.yul\":9362:9368   */\n      dup4\n        /* \"#utility.yul\":9359:9448   */\n      iszero\n      tag_172\n      jumpi\n      pop\n        /* \"#utility.yul\":9414:9433   */\n      dup5\n      dup3\n      add\n        /* \"#utility.yul\":9408:9434   */\n      mload\n        /* \"#utility.yul\":9359:9448   */\n    tag_172:\n      not(0x00)\n        /* \"#utility.yul\":8216:8217   */\n      0x03\n        /* \"#utility.yul\":8212:8223   */\n      dup6\n      swap1\n      shl\n        /* \"#utility.yul\":8208:8232   */\n      shr\n        /* \"#utility.yul\":8204:8233   */\n      not\n        /* \"#utility.yul\":8194:8234   */\n      and\n        /* \"#utility.yul\":8240:8241   */\n      0x01\n        /* \"#utility.yul\":8236:8247   */\n      dup5\n      swap1\n      shl\n        /* \"#utility.yul\":8191:8248   */\n      or\n        /* \"#utility.yul\":9461:9542   */\n      dup5\n      sstore\n        /* \"#utility.yul\":8622:9552   */\n      jump(tag_163)\n        /* \"#utility.yul\":8652:9301   */\n    tag_171:\n        /* \"#utility.yul\":7512:7513   */\n      0x00\n        /* \"#utility.yul\":7505:7519   */\n      dup5\n      dup2\n      mstore\n        /* \"#utility.yul\":7549:7553   */\n      0x20\n        /* \"#utility.yul\":7536:7554   */\n      dup2\n      keccak256\n      not(0x1f)\n        /* \"#utility.yul\":8688:8708   */\n      dup6\n      and\n      swap2\n        /* \"#utility.yul\":8806:9028   */\n    tag_175:\n        /* \"#utility.yul\":8820:8827   */\n      dup3\n        /* \"#utility.yul\":8817:8818   */\n      dup2\n        /* \"#utility.yul\":8814:8828   */\n      lt\n        /* \"#utility.yul\":8806:9028   */\n      iszero\n      tag_177\n      jumpi\n        /* \"#utility.yul\":8902:8921   */\n      dup8\n      dup6\n      add\n        /* \"#utility.yul\":8896:8922   */\n      mload\n        /* \"#utility.yul\":8881:8923   */\n      dup3\n      sstore\n        /* \"#utility.yul\":9009:9013   */\n      0x20\n        /* \"#utility.yul\":8994:9014   */\n      swap5\n      dup6\n      add\n      swap5\n        /* \"#utility.yul\":8962:8963   */\n      0x01\n        /* \"#utility.yul\":8950:8964   */\n      swap1\n      swap3\n      add\n      swap2\n        /* \"#utility.yul\":8836:8848   */\n      add\n        /* \"#utility.yul\":8806:9028   */\n      jump(tag_175)\n    tag_177:\n        /* \"#utility.yul\":8810:8813   */\n      pop\n        /* \"#utility.yul\":9056:9062   */\n      dup5\n        /* \"#utility.yul\":9047:9054   */\n      dup3\n        /* \"#utility.yul\":9044:9063   */\n      lt\n        /* \"#utility.yul\":9041:9242   */\n      iszero\n      tag_178\n      jumpi\n        /* \"#utility.yul\":9117:9136   */\n      dup7\n      dup5\n      add\n        /* \"#utility.yul\":9111:9137   */\n      mload\n      not(0x00)\n        /* \"#utility.yul\":9200:9201   */\n      0x03\n        /* \"#utility.yul\":9196:9210   */\n      dup8\n      swap1\n      shl\n        /* \"#utility.yul\":9212:9215   */\n      0xf8\n        /* \"#utility.yul\":9192:9216   */\n      and\n        /* \"#utility.yul\":9188:9225   */\n      shr\n        /* \"#utility.yul\":9184:9226   */\n      not\n        /* \"#utility.yul\":9169:9227   */\n      and\n        /* \"#utility.yul\":9154:9228   */\n      dup2\n      sstore\n        /* \"#utility.yul\":9041:9242   */\n    tag_178:\n      pop\n      pop\n      pop\n      pop\n        /* \"#utility.yul\":9288:9289   */\n      0x01\n        /* \"#utility.yul\":9272:9286   */\n      swap1\n      dup2\n      shl\n        /* \"#utility.yul\":9268:9290   */\n      add\n        /* \"#utility.yul\":9255:9291   */\n      swap1\n      sstore\n      pop\n        /* \"#utility.yul\":8259:9558   */\n      jump\t// out\n        /* \"#utility.yul\":9563:9698   */\n    tag_105:\n        /* \"#utility.yul\":9602:9605   */\n      0x00\n        /* \"#utility.yul\":9623:9640   */\n      0x01\n      dup3\n      add\n        /* \"#utility.yul\":9620:9663   */\n      tag_181\n      jumpi\n        /* \"#utility.yul\":9643:9661   */\n      tag_181\n      tag_108\n      jump\t// in\n    tag_181:\n      pop\n        /* \"#utility.yul\":9690:9691   */\n      0x01\n        /* \"#utility.yul\":9679:9692   */\n      add\n      swap1\n        /* \"#utility.yul\":9563:9698   */\n      jump\t// out\n\n    auxdata: 0xa2646970667358221220af2f834bf9dd334439495127f5feeca9c342bc089dc6043c571bb81805b174cb64736f6c634300081a0033\n}\n",
				"bytecode": {
					"linkReferences": {},
					"object": "608060405260645f55600180553480156016575f80fd5b50600380546001600160a01b03191633179055610c91806100365f395ff3fe60806040526004361061006e575f3560e01c80638da5cb5b1161004c5780638da5cb5b146100f2578063ddca3f4314610129578063f14faf6f1461013d578063ffe4082f14610150575f80fd5b8063141961bc146100725780632e1a7d4d146100ae57806361b8ce8c146100cf575b5f80fd5b34801561007d575f80fd5b5061009161008c3660046108ce565b61016f565b6040516100a5989796959493929190610913565b60405180910390f35b3480156100b9575f80fd5b506100cd6100c83660046108ce565b6103d7565b005b3480156100da575f80fd5b506100e460015481565b6040519081526020016100a5565b3480156100fd575f80fd5b50600354610111906001600160a01b031681565b6040516001600160a01b0390911681526020016100a5565b348015610134575f80fd5b506100e45f5481565b6100cd61014b3660046108ce565b610615565b34801561015b575f80fd5b506100cd61016a3660046109d7565b6106f0565b600260208190525f91825260409091208054600182015492820180546001600160a01b039092169392916101a290610ab0565b80601f01602080910402602001604051908101604052809291908181526020018280546101ce90610ab0565b80156102195780601f106101f057610100808354040283529160200191610219565b820191905f5260205f20905b8154815290600101906020018083116101fc57829003601f168201915b50505050509080600301805461022e90610ab0565b80601f016020809104026020016040519081016040528092919081815260200182805461025a90610ab0565b80156102a55780601f1061027c576101008083540402835291602001916102a5565b820191905f5260205f20905b81548152906001019060200180831161028857829003601f168201915b5050505050908060040180546102ba90610ab0565b80601f01602080910402602001604051908101604052809291908181526020018280546102e690610ab0565b80156103315780601f1061030857610100808354040283529160200191610331565b820191905f5260205f20905b81548152906001019060200180831161031457829003601f168201915b50505050509080600501805461034690610ab0565b80601f016020809104026020016040519081016040528092919081815260200182805461037290610ab0565b80156103bd5780601f10610394576101008083540402835291602001916103bd565b820191905f5260205f20905b8154815290600101906020018083116103a057829003601f168201915b50505050600683015460079093015491929160ff16905088565b600354600160a01b900460ff16156104265760405162461bcd60e51b815260206004820152600d60248201526c4e6f207265656e7472616e637960981b60448201526064015b60405180910390fd5b6003805460ff60a01b1916600160a01b1790555f8181526002602052604090205481906001600160a01b031633146104b15760405162461bcd60e51b815260206004820152602860248201527f596f7520617265206e6f74207468652063726561746f72206f6620746869732060448201526731b0b6b830b4b3b760c11b606482015260840161041d565b5f828152600260205260409020600781015460ff166105075760405162461bcd60e51b815260206004820152601260248201527110d85b5c185a59db881a5cc818db1bdcd95960721b604482015260640161041d565b5f548160060154116105525760405162461bcd60e51b8152602060048201526014602482015273496e73756666696369656e742062616c616e636560601b604482015260640161041d565b80545f805460068401546001600160a01b0390931692839161057391610afc565b6040515f81818185875af1925050503d805f81146105ac576040519150601f19603f3d011682016040523d82523d5f602084013e6105b1565b606091505b50509050806105f75760405162461bcd60e51b8152602060048201526012602482015271151c985b9cd858dd1a5bdb8819985a5b195960721b604482015260640161041d565b5050600701805460ff1916905550506003805460ff60a01b19169055565b5f8181526002602052604090206007015460ff1661066e5760405162461bcd60e51b815260206004820152601660248201527543616d706169676e206973206e6f742061637469766560501b604482015260640161041d565b345f036106c85760405162461bcd60e51b815260206004820152602260248201527f446f6e6174696f6e206d7573742062652067726561746572207468616e207a65604482015261726f60f01b606482015260840161041d565b5f81815260026020526040812060060180543492906106e8908490610b15565b909155505050565b604051806101000160405280336001600160a01b031681526020018a815260200189898080601f0160208091040260200160405190810160405280939291908181526020018383808284375f92019190915250505090825250604080516020601f8a01819004810282018101909252888152918101919089908990819084018382808284375f92019190915250505090825250604080516020601f8801819004810282018101909252868152918101919087908790819084018382808284375f92019190915250505090825250604080516020601f8601819004810282018101909252848152918101919085908590819084018382808284375f92018290525093855250505060208083018290526001604093840181905280548352600280835292849020855181546001600160a01b0319166001600160a01b039091161781559185015190820155918301519082019061084b9082610b88565b50606082015160038201906108609082610b88565b50608082015160048201906108759082610b88565b5060a0820151600582019061088a9082610b88565b5060c0820151600682015560e0909101516007909101805460ff191691151591909117905560018054905f6108be83610c43565b9190505550505050505050505050565b5f602082840312156108de575f80fd5b5035919050565b5f81518084528060208401602086015e5f602082860101526020601f19601f83011685010191505092915050565b60018060a01b038916815287602082015261010060408201525f61093b6101008301896108e5565b828103606084015261094d81896108e5565b9050828103608084015261096181886108e5565b905082810360a084015261097581876108e5565b60c0840195909552505090151560e0909101529695505050505050565b5f8083601f8401126109a2575f80fd5b50813567ffffffffffffffff8111156109b9575f80fd5b6020830191508360208285010111156109d0575f80fd5b9250929050565b5f805f805f805f805f60a08a8c0312156109ef575f80fd5b8935985060208a013567ffffffffffffffff811115610a0c575f80fd5b610a188c828d01610992565b90995097505060408a013567ffffffffffffffff811115610a37575f80fd5b610a438c828d01610992565b90975095505060608a013567ffffffffffffffff811115610a62575f80fd5b610a6e8c828d01610992565b90955093505060808a013567ffffffffffffffff811115610a8d575f80fd5b610a998c828d01610992565b915080935050809150509295985092959850929598565b600181811c90821680610ac457607f821691505b602082108103610ae257634e487b7160e01b5f52602260045260245ffd5b50919050565b634e487b7160e01b5f52601160045260245ffd5b81810381811115610b0f57610b0f610ae8565b92915050565b80820180821115610b0f57610b0f610ae8565b634e487b7160e01b5f52604160045260245ffd5b601f821115610b8357805f5260205f20601f840160051c81016020851015610b615750805b601f840160051c820191505b81811015610b80575f8155600101610b6d565b50505b505050565b815167ffffffffffffffff811115610ba257610ba2610b28565b610bb681610bb08454610ab0565b84610b3c565b6020601f821160018114610be8575f8315610bd15750848201515b5f19600385901b1c1916600184901b178455610b80565b5f84815260208120601f198516915b82811015610c175787850151825560209485019460019092019101610bf7565b5084821015610c3457868401515f19600387901b60f8161c191681555b50505050600190811b01905550565b5f60018201610c5457610c54610ae8565b506001019056fea2646970667358221220af2f834bf9dd334439495127f5feeca9c342bc089dc6043c571bb81805b174cb64736f6c634300081a0033",
					"opcodes": "PUSH1 0x80 PUSH1 0x40 MSTORE PUSH1 0x64 PUSH0 SSTORE PUSH1 0x1 DUP1 SSTORE CALLVALUE DUP1 ISZERO PUSH1 0x16 JUMPI PUSH0 DUP1 REVERT JUMPDEST POP PUSH1 0x3 DUP1 SLOAD PUSH1 0x1 PUSH1 0x1 PUSH1 0xA0 SHL SUB NOT AND CALLER OR SWAP1 SSTORE PUSH2 0xC91 DUP1 PUSH2 0x36 PUSH0 CODECOPY PUSH0 RETURN INVALID PUSH1 0x80 PUSH1 0x40 MSTORE PUSH1 0x4 CALLDATASIZE LT PUSH2 0x6E JUMPI PUSH0 CALLDATALOAD PUSH1 0xE0 SHR DUP1 PUSH4 0x8DA5CB5B GT PUSH2 0x4C JUMPI DUP1 PUSH4 0x8DA5CB5B EQ PUSH2 0xF2 JUMPI DUP1 PUSH4 0xDDCA3F43 EQ PUSH2 0x129 JUMPI DUP1 PUSH4 0xF14FAF6F EQ PUSH2 0x13D JUMPI DUP1 PUSH4 0xFFE4082F EQ PUSH2 0x150 JUMPI PUSH0 DUP1 REVERT JUMPDEST DUP1 PUSH4 0x141961BC EQ PUSH2 0x72 JUMPI DUP1 PUSH4 0x2E1A7D4D EQ PUSH2 0xAE JUMPI DUP1 PUSH4 0x61B8CE8C EQ PUSH2 0xCF JUMPI JUMPDEST PUSH0 DUP1 REVERT JUMPDEST CALLVALUE DUP1 ISZERO PUSH2 0x7D JUMPI PUSH0 DUP1 REVERT JUMPDEST POP PUSH2 0x91 PUSH2 0x8C CALLDATASIZE PUSH1 0x4 PUSH2 0x8CE JUMP JUMPDEST PUSH2 0x16F JUMP JUMPDEST PUSH1 0x40 MLOAD PUSH2 0xA5 SWAP9 SWAP8 SWAP7 SWAP6 SWAP5 SWAP4 SWAP3 SWAP2 SWAP1 PUSH2 0x913 JUMP JUMPDEST PUSH1 0x40 MLOAD DUP1 SWAP2 SUB SWAP1 RETURN JUMPDEST CALLVALUE DUP1 ISZERO PUSH2 0xB9 JUMPI PUSH0 DUP1 REVERT JUMPDEST POP PUSH2 0xCD PUSH2 0xC8 CALLDATASIZE PUSH1 0x4 PUSH2 0x8CE JUMP JUMPDEST PUSH2 0x3D7 JUMP JUMPDEST STOP JUMPDEST CALLVALUE DUP1 ISZERO PUSH2 0xDA JUMPI PUSH0 DUP1 REVERT JUMPDEST POP PUSH2 0xE4 PUSH1 0x1 SLOAD DUP2 JUMP JUMPDEST PUSH1 0x40 MLOAD SWAP1 DUP2 MSTORE PUSH1 0x20 ADD PUSH2 0xA5 JUMP JUMPDEST CALLVALUE DUP1 ISZERO PUSH2 0xFD JUMPI PUSH0 DUP1 REVERT JUMPDEST POP PUSH1 0x3 SLOAD PUSH2 0x111 SWAP1 PUSH1 0x1 PUSH1 0x1 PUSH1 0xA0 SHL SUB AND DUP2 JUMP JUMPDEST PUSH1 0x40 MLOAD PUSH1 0x1 PUSH1 0x1 PUSH1 0xA0 SHL SUB SWAP1 SWAP2 AND DUP2 MSTORE PUSH1 0x20 ADD PUSH2 0xA5 JUMP JUMPDEST CALLVALUE DUP1 ISZERO PUSH2 0x134 JUMPI PUSH0 DUP1 REVERT JUMPDEST POP PUSH2 0xE4 PUSH0 SLOAD DUP2 JUMP JUMPDEST PUSH2 0xCD PUSH2 0x14B CALLDATASIZE PUSH1 0x4 PUSH2 0x8CE JUMP JUMPDEST PUSH2 0x615 JUMP JUMPDEST CALLVALUE DUP1 ISZERO PUSH2 0x15B JUMPI PUSH0 DUP1 REVERT JUMPDEST POP PUSH2 0xCD PUSH2 0x16A CALLDATASIZE PUSH1 0x4 PUSH2 0x9D7 JUMP JUMPDEST PUSH2 0x6F0 JUMP JUMPDEST PUSH1 0x2 PUSH1 0x20 DUP2 SWAP1 MSTORE PUSH0 SWAP2 DUP3 MSTORE PUSH1 0x40 SWAP1 SWAP2 KECCAK256 DUP1 SLOAD PUSH1 0x1 DUP3 ADD SLOAD SWAP3 DUP3 ADD DUP1 SLOAD PUSH1 0x1 PUSH1 0x1 PUSH1 0xA0 SHL SUB SWAP1 SWAP3 AND SWAP4 SWAP3 SWAP2 PUSH2 0x1A2 SWAP1 PUSH2 0xAB0 JUMP JUMPDEST DUP1 PUSH1 0x1F ADD PUSH1 0x20 DUP1 SWAP2 DIV MUL PUSH1 0x20 ADD PUSH1 0x40 MLOAD SWAP1 DUP2 ADD PUSH1 0x40 MSTORE DUP1 SWAP3 SWAP2 SWAP1 DUP2 DUP2 MSTORE PUSH1 0x20 ADD DUP3 DUP1 SLOAD PUSH2 0x1CE SWAP1 PUSH2 0xAB0 JUMP JUMPDEST DUP1 ISZERO PUSH2 0x219 JUMPI DUP1 PUSH1 0x1F LT PUSH2 0x1F0 JUMPI PUSH2 0x100 DUP1 DUP4 SLOAD DIV MUL DUP4 MSTORE SWAP2 PUSH1 0x20 ADD SWAP2 PUSH2 0x219 JUMP JUMPDEST DUP3 ADD SWAP2 SWAP1 PUSH0 MSTORE PUSH1 0x20 PUSH0 KECCAK256 SWAP1 JUMPDEST DUP2 SLOAD DUP2 MSTORE SWAP1 PUSH1 0x1 ADD SWAP1 PUSH1 0x20 ADD DUP1 DUP4 GT PUSH2 0x1FC JUMPI DUP3 SWAP1 SUB PUSH1 0x1F AND DUP3 ADD SWAP2 JUMPDEST POP POP POP POP POP SWAP1 DUP1 PUSH1 0x3 ADD DUP1 SLOAD PUSH2 0x22E SWAP1 PUSH2 0xAB0 JUMP JUMPDEST DUP1 PUSH1 0x1F ADD PUSH1 0x20 DUP1 SWAP2 DIV MUL PUSH1 0x20 ADD PUSH1 0x40 MLOAD SWAP1 DUP2 ADD PUSH1 0x40 MSTORE DUP1 SWAP3 SWAP2 SWAP1 DUP2 DUP2 MSTORE PUSH1 0x20 ADD DUP3 DUP1 SLOAD PUSH2 0x25A SWAP1 PUSH2 0xAB0 JUMP JUMPDEST DUP1 ISZERO PUSH2 0x2A5 JUMPI DUP1 PUSH1 0x1F LT PUSH2 0x27C JUMPI PUSH2 0x100 DUP1 DUP4 SLOAD DIV MUL DUP4 MSTORE SWAP2 PUSH1 0x20 ADD SWAP2 PUSH2 0x2A5 JUMP JUMPDEST DUP3 ADD SWAP2 SWAP1 PUSH0 MSTORE PUSH1 0x20 PUSH0 KECCAK256 SWAP1 JUMPDEST DUP2 SLOAD DUP2 MSTORE SWAP1 PUSH1 0x1 ADD SWAP1 PUSH1 0x20 ADD DUP1 DUP4 GT PUSH2 0x288 JUMPI DUP3 SWAP1 SUB PUSH1 0x1F AND DUP3 ADD SWAP2 JUMPDEST POP POP POP POP POP SWAP1 DUP1 PUSH1 0x4 ADD DUP1 SLOAD PUSH2 0x2BA SWAP1 PUSH2 0xAB0 JUMP JUMPDEST DUP1 PUSH1 0x1F ADD PUSH1 0x20 DUP1 SWAP2 DIV MUL PUSH1 0x20 ADD PUSH1 0x40 MLOAD SWAP1 DUP2 ADD PUSH1 0x40 MSTORE DUP1 SWAP3 SWAP2 SWAP1 DUP2 DUP2 MSTORE PUSH1 0x20 ADD DUP3 DUP1 SLOAD PUSH2 0x2E6 SWAP1 PUSH2 0xAB0 JUMP JUMPDEST DUP1 ISZERO PUSH2 0x331 JUMPI DUP1 PUSH1 0x1F LT PUSH2 0x308 JUMPI PUSH2 0x100 DUP1 DUP4 SLOAD DIV MUL DUP4 MSTORE SWAP2 PUSH1 0x20 ADD SWAP2 PUSH2 0x331 JUMP JUMPDEST DUP3 ADD SWAP2 SWAP1 PUSH0 MSTORE PUSH1 0x20 PUSH0 KECCAK256 SWAP1 JUMPDEST DUP2 SLOAD DUP2 MSTORE SWAP1 PUSH1 0x1 ADD SWAP1 PUSH1 0x20 ADD DUP1 DUP4 GT PUSH2 0x314 JUMPI DUP3 SWAP1 SUB PUSH1 0x1F AND DUP3 ADD SWAP2 JUMPDEST POP POP POP POP POP SWAP1 DUP1 PUSH1 0x5 ADD DUP1 SLOAD PUSH2 0x346 SWAP1 PUSH2 0xAB0 JUMP JUMPDEST DUP1 PUSH1 0x1F ADD PUSH1 0x20 DUP1 SWAP2 DIV MUL PUSH1 0x20 ADD PUSH1 0x40 MLOAD SWAP1 DUP2 ADD PUSH1 0x40 MSTORE DUP1 SWAP3 SWAP2 SWAP1 DUP2 DUP2 MSTORE PUSH1 0x20 ADD DUP3 DUP1 SLOAD PUSH2 0x372 SWAP1 PUSH2 0xAB0 JUMP JUMPDEST DUP1 ISZERO PUSH2 0x3BD JUMPI DUP1 PUSH1 0x1F LT PUSH2 0x394 JUMPI PUSH2 0x100 DUP1 DUP4 SLOAD DIV MUL DUP4 MSTORE SWAP2 PUSH1 0x20 ADD SWAP2 PUSH2 0x3BD JUMP JUMPDEST DUP3 ADD SWAP2 SWAP1 PUSH0 MSTORE PUSH1 0x20 PUSH0 KECCAK256 SWAP1 JUMPDEST DUP2 SLOAD DUP2 MSTORE SWAP1 PUSH1 0x1 ADD SWAP1 PUSH1 0x20 ADD DUP1 DUP4 GT PUSH2 0x3A0 JUMPI DUP3 SWAP1 SUB PUSH1 0x1F AND DUP3 ADD SWAP2 JUMPDEST POP POP POP POP PUSH1 0x6 DUP4 ADD SLOAD PUSH1 0x7 SWAP1 SWAP4 ADD SLOAD SWAP2 SWAP3 SWAP2 PUSH1 0xFF AND SWAP1 POP DUP9 JUMP JUMPDEST PUSH1 0x3 SLOAD PUSH1 0x1 PUSH1 0xA0 SHL SWAP1 DIV PUSH1 0xFF AND ISZERO PUSH2 0x426 JUMPI PUSH1 0x40 MLOAD PUSH3 0x461BCD PUSH1 0xE5 SHL DUP2 MSTORE PUSH1 0x20 PUSH1 0x4 DUP3 ADD MSTORE PUSH1 0xD PUSH1 0x24 DUP3 ADD MSTORE PUSH13 0x4E6F207265656E7472616E6379 PUSH1 0x98 SHL PUSH1 0x44 DUP3 ADD MSTORE PUSH1 0x64 ADD JUMPDEST PUSH1 0x40 MLOAD DUP1 SWAP2 SUB SWAP1 REVERT JUMPDEST PUSH1 0x3 DUP1 SLOAD PUSH1 0xFF PUSH1 0xA0 SHL NOT AND PUSH1 0x1 PUSH1 0xA0 SHL OR SWAP1 SSTORE PUSH0 DUP2 DUP2 MSTORE PUSH1 0x2 PUSH1 0x20 MSTORE PUSH1 0x40 SWAP1 KECCAK256 SLOAD DUP2 SWAP1 PUSH1 0x1 PUSH1 0x1 PUSH1 0xA0 SHL SUB AND CALLER EQ PUSH2 0x4B1 JUMPI PUSH1 0x40 MLOAD PUSH3 0x461BCD PUSH1 0xE5 SHL DUP2 MSTORE PUSH1 0x20 PUSH1 0x4 DUP3 ADD MSTORE PUSH1 0x28 PUSH1 0x24 DUP3 ADD MSTORE PUSH32 0x596F7520617265206E6F74207468652063726561746F72206F66207468697320 PUSH1 0x44 DUP3 ADD MSTORE PUSH8 0x31B0B6B830B4B3B7 PUSH1 0xC1 SHL PUSH1 0x64 DUP3 ADD MSTORE PUSH1 0x84 ADD PUSH2 0x41D JUMP JUMPDEST PUSH0 DUP3 DUP2 MSTORE PUSH1 0x2 PUSH1 0x20 MSTORE PUSH1 0x40 SWAP1 KECCAK256 PUSH1 0x7 DUP2 ADD SLOAD PUSH1 0xFF AND PUSH2 0x507 JUMPI PUSH1 0x40 MLOAD PUSH3 0x461BCD PUSH1 0xE5 SHL DUP2 MSTORE PUSH1 0x20 PUSH1 0x4 DUP3 ADD MSTORE PUSH1 0x12 PUSH1 0x24 DUP3 ADD MSTORE PUSH18 0x10D85B5C185A59DB881A5CC818DB1BDCD959 PUSH1 0x72 SHL PUSH1 0x44 DUP3 ADD MSTORE PUSH1 0x64 ADD PUSH2 0x41D JUMP JUMPDEST PUSH0 SLOAD DUP2 PUSH1 0x6 ADD SLOAD GT PUSH2 0x552 JUMPI PUSH1 0x40 MLOAD PUSH3 0x461BCD PUSH1 0xE5 SHL DUP2 MSTORE PUSH1 0x20 PUSH1 0x4 DUP3 ADD MSTORE PUSH1 0x14 PUSH1 0x24 DUP3 ADD MSTORE PUSH20 0x496E73756666696369656E742062616C616E6365 PUSH1 0x60 SHL PUSH1 0x44 DUP3 ADD MSTORE PUSH1 0x64 ADD PUSH2 0x41D JUMP JUMPDEST DUP1 SLOAD PUSH0 DUP1 SLOAD PUSH1 0x6 DUP5 ADD SLOAD PUSH1 0x1 PUSH1 0x1 PUSH1 0xA0 SHL SUB SWAP1 SWAP4 AND SWAP3 DUP4 SWAP2 PUSH2 0x573 SWAP2 PUSH2 0xAFC JUMP JUMPDEST PUSH1 0x40 MLOAD PUSH0 DUP2 DUP2 DUP2 DUP6 DUP8 GAS CALL SWAP3 POP POP POP RETURNDATASIZE DUP1 PUSH0 DUP2 EQ PUSH2 0x5AC JUMPI PUSH1 0x40 MLOAD SWAP2 POP PUSH1 0x1F NOT PUSH1 0x3F RETURNDATASIZE ADD AND DUP3 ADD PUSH1 0x40 MSTORE RETURNDATASIZE DUP3 MSTORE RETURNDATASIZE PUSH0 PUSH1 0x20 DUP5 ADD RETURNDATACOPY PUSH2 0x5B1 JUMP JUMPDEST PUSH1 0x60 SWAP2 POP JUMPDEST POP POP SWAP1 POP DUP1 PUSH2 0x5F7 JUMPI PUSH1 0x40 MLOAD PUSH3 0x461BCD PUSH1 0xE5 SHL DUP2 MSTORE PUSH1 0x20 PUSH1 0x4 DUP3 ADD MSTORE PUSH1 0x12 PUSH1 0x24 DUP3 ADD MSTORE PUSH18 0x151C985B9CD858DD1A5BDB8819985A5B1959 PUSH1 0x72 SHL PUSH1 0x44 DUP3 ADD MSTORE PUSH1 0x64 ADD PUSH2 0x41D JUMP JUMPDEST POP POP PUSH1 0x7 ADD DUP1 SLOAD PUSH1 0xFF NOT AND SWAP1 SSTORE POP POP PUSH1 0x3 DUP1 SLOAD PUSH1 0xFF PUSH1 0xA0 SHL NOT AND SWAP1 SSTORE JUMP JUMPDEST PUSH0 DUP2 DUP2 MSTORE PUSH1 0x2 PUSH1 0x20 MSTORE PUSH1 0x40 SWAP1 KECCAK256 PUSH1 0x7 ADD SLOAD PUSH1 0xFF AND PUSH2 0x66E JUMPI PUSH1 0x40 MLOAD PUSH3 0x461BCD PUSH1 0xE5 SHL DUP2 MSTORE PUSH1 0x20 PUSH1 0x4 DUP3 ADD MSTORE PUSH1 0x16 PUSH1 0x24 DUP3 ADD MSTORE PUSH22 0x43616D706169676E206973206E6F7420616374697665 PUSH1 0x50 SHL PUSH1 0x44 DUP3 ADD MSTORE PUSH1 0x64 ADD PUSH2 0x41D JUMP JUMPDEST CALLVALUE PUSH0 SUB PUSH2 0x6C8 JUMPI PUSH1 0x40 MLOAD PUSH3 0x461BCD PUSH1 0xE5 SHL DUP2 MSTORE PUSH1 0x20 PUSH1 0x4 DUP3 ADD MSTORE PUSH1 0x22 PUSH1 0x24 DUP3 ADD MSTORE PUSH32 0x446F6E6174696F6E206D7573742062652067726561746572207468616E207A65 PUSH1 0x44 DUP3 ADD MSTORE PUSH2 0x726F PUSH1 0xF0 SHL PUSH1 0x64 DUP3 ADD MSTORE PUSH1 0x84 ADD PUSH2 0x41D JUMP JUMPDEST PUSH0 DUP2 DUP2 MSTORE PUSH1 0x2 PUSH1 0x20 MSTORE PUSH1 0x40 DUP2 KECCAK256 PUSH1 0x6 ADD DUP1 SLOAD CALLVALUE SWAP3 SWAP1 PUSH2 0x6E8 SWAP1 DUP5 SWAP1 PUSH2 0xB15 JUMP JUMPDEST SWAP1 SWAP2 SSTORE POP POP POP JUMP JUMPDEST PUSH1 0x40 MLOAD DUP1 PUSH2 0x100 ADD PUSH1 0x40 MSTORE DUP1 CALLER PUSH1 0x1 PUSH1 0x1 PUSH1 0xA0 SHL SUB AND DUP2 MSTORE PUSH1 0x20 ADD DUP11 DUP2 MSTORE PUSH1 0x20 ADD DUP10 DUP10 DUP1 DUP1 PUSH1 0x1F ADD PUSH1 0x20 DUP1 SWAP2 DIV MUL PUSH1 0x20 ADD PUSH1 0x40 MLOAD SWAP1 DUP2 ADD PUSH1 0x40 MSTORE DUP1 SWAP4 SWAP3 SWAP2 SWAP1 DUP2 DUP2 MSTORE PUSH1 0x20 ADD DUP4 DUP4 DUP1 DUP3 DUP5 CALLDATACOPY PUSH0 SWAP3 ADD SWAP2 SWAP1 SWAP2 MSTORE POP POP POP SWAP1 DUP3 MSTORE POP PUSH1 0x40 DUP1 MLOAD PUSH1 0x20 PUSH1 0x1F DUP11 ADD DUP2 SWAP1 DIV DUP2 MUL DUP3 ADD DUP2 ADD SWAP1 SWAP3 MSTORE DUP9 DUP2 MSTORE SWAP2 DUP2 ADD SWAP2 SWAP1 DUP10 SWAP1 DUP10 SWAP1 DUP2 SWAP1 DUP5 ADD DUP4 DUP3 DUP1 DUP3 DUP5 CALLDATACOPY PUSH0 SWAP3 ADD SWAP2 SWAP1 SWAP2 MSTORE POP POP POP SWAP1 DUP3 MSTORE POP PUSH1 0x40 DUP1 MLOAD PUSH1 0x20 PUSH1 0x1F DUP9 ADD DUP2 SWAP1 DIV DUP2 MUL DUP3 ADD DUP2 ADD SWAP1 SWAP3 MSTORE DUP7 DUP2 MSTORE SWAP2 DUP2 ADD SWAP2 SWAP1 DUP8 SWAP1 DUP8 SWAP1 DUP2 SWAP1 DUP5 ADD DUP4 DUP3 DUP1 DUP3 DUP5 CALLDATACOPY PUSH0 SWAP3 ADD SWAP2 SWAP1 SWAP2 MSTORE POP POP POP SWAP1 DUP3 MSTORE POP PUSH1 0x40 DUP1 MLOAD PUSH1 0x20 PUSH1 0x1F DUP7 ADD DUP2 SWAP1 DIV DUP2 MUL DUP3 ADD DUP2 ADD SWAP1 SWAP3 MSTORE DUP5 DUP2 MSTORE SWAP2 DUP2 ADD SWAP2 SWAP1 DUP6 SWAP1 DUP6 SWAP1 DUP2 SWAP1 DUP5 ADD DUP4 DUP3 DUP1 DUP3 DUP5 CALLDATACOPY PUSH0 SWAP3 ADD DUP3 SWAP1 MSTORE POP SWAP4 DUP6 MSTORE POP POP POP PUSH1 0x20 DUP1 DUP4 ADD DUP3 SWAP1 MSTORE PUSH1 0x1 PUSH1 0x40 SWAP4 DUP5 ADD DUP2 SWAP1 MSTORE DUP1 SLOAD DUP4 MSTORE PUSH1 0x2 DUP1 DUP4 MSTORE SWAP3 DUP5 SWAP1 KECCAK256 DUP6 MLOAD DUP2 SLOAD PUSH1 0x1 PUSH1 0x1 PUSH1 0xA0 SHL SUB NOT AND PUSH1 0x1 PUSH1 0x1 PUSH1 0xA0 SHL SUB SWAP1 SWAP2 AND OR DUP2 SSTORE SWAP2 DUP6 ADD MLOAD SWAP1 DUP3 ADD SSTORE SWAP2 DUP4 ADD MLOAD SWAP1 DUP3 ADD SWAP1 PUSH2 0x84B SWAP1 DUP3 PUSH2 0xB88 JUMP JUMPDEST POP PUSH1 0x60 DUP3 ADD MLOAD PUSH1 0x3 DUP3 ADD SWAP1 PUSH2 0x860 SWAP1 DUP3 PUSH2 0xB88 JUMP JUMPDEST POP PUSH1 0x80 DUP3 ADD MLOAD PUSH1 0x4 DUP3 ADD SWAP1 PUSH2 0x875 SWAP1 DUP3 PUSH2 0xB88 JUMP JUMPDEST POP PUSH1 0xA0 DUP3 ADD MLOAD PUSH1 0x5 DUP3 ADD SWAP1 PUSH2 0x88A SWAP1 DUP3 PUSH2 0xB88 JUMP JUMPDEST POP PUSH1 0xC0 DUP3 ADD MLOAD PUSH1 0x6 DUP3 ADD SSTORE PUSH1 0xE0 SWAP1 SWAP2 ADD MLOAD PUSH1 0x7 SWAP1 SWAP2 ADD DUP1 SLOAD PUSH1 0xFF NOT AND SWAP2 ISZERO ISZERO SWAP2 SWAP1 SWAP2 OR SWAP1 SSTORE PUSH1 0x1 DUP1 SLOAD SWAP1 PUSH0 PUSH2 0x8BE DUP4 PUSH2 0xC43 JUMP JUMPDEST SWAP2 SWAP1 POP SSTORE POP POP POP POP POP POP POP POP POP POP JUMP JUMPDEST PUSH0 PUSH1 0x20 DUP3 DUP5 SUB SLT ISZERO PUSH2 0x8DE JUMPI PUSH0 DUP1 REVERT JUMPDEST POP CALLDATALOAD SWAP2 SWAP1 POP JUMP JUMPDEST PUSH0 DUP2 MLOAD DUP1 DUP5 MSTORE DUP1 PUSH1 0x20 DUP5 ADD PUSH1 0x20 DUP7 ADD MCOPY PUSH0 PUSH1 0x20 DUP3 DUP7 ADD ADD MSTORE PUSH1 0x20 PUSH1 0x1F NOT PUSH1 0x1F DUP4 ADD AND DUP6 ADD ADD SWAP2 POP POP SWAP3 SWAP2 POP POP JUMP JUMPDEST PUSH1 0x1 DUP1 PUSH1 0xA0 SHL SUB DUP10 AND DUP2 MSTORE DUP8 PUSH1 0x20 DUP3 ADD MSTORE PUSH2 0x100 PUSH1 0x40 DUP3 ADD MSTORE PUSH0 PUSH2 0x93B PUSH2 0x100 DUP4 ADD DUP10 PUSH2 0x8E5 JUMP JUMPDEST DUP3 DUP2 SUB PUSH1 0x60 DUP5 ADD MSTORE PUSH2 0x94D DUP2 DUP10 PUSH2 0x8E5 JUMP JUMPDEST SWAP1 POP DUP3 DUP2 SUB PUSH1 0x80 DUP5 ADD MSTORE PUSH2 0x961 DUP2 DUP9 PUSH2 0x8E5 JUMP JUMPDEST SWAP1 POP DUP3 DUP2 SUB PUSH1 0xA0 DUP5 ADD MSTORE PUSH2 0x975 DUP2 DUP8 PUSH2 0x8E5 JUMP JUMPDEST PUSH1 0xC0 DUP5 ADD SWAP6 SWAP1 SWAP6 MSTORE POP POP SWAP1 ISZERO ISZERO PUSH1 0xE0 SWAP1 SWAP2 ADD MSTORE SWAP7 SWAP6 POP POP POP POP POP POP JUMP JUMPDEST PUSH0 DUP1 DUP4 PUSH1 0x1F DUP5 ADD SLT PUSH2 0x9A2 JUMPI PUSH0 DUP1 REVERT JUMPDEST POP DUP2 CALLDATALOAD PUSH8 0xFFFFFFFFFFFFFFFF DUP2 GT ISZERO PUSH2 0x9B9 JUMPI PUSH0 DUP1 REVERT JUMPDEST PUSH1 0x20 DUP4 ADD SWAP2 POP DUP4 PUSH1 0x20 DUP3 DUP6 ADD ADD GT ISZERO PUSH2 0x9D0 JUMPI PUSH0 DUP1 REVERT JUMPDEST SWAP3 POP SWAP3 SWAP1 POP JUMP JUMPDEST PUSH0 DUP1 PUSH0 DUP1 PUSH0 DUP1 PUSH0 DUP1 PUSH0 PUSH1 0xA0 DUP11 DUP13 SUB SLT ISZERO PUSH2 0x9EF JUMPI PUSH0 DUP1 REVERT JUMPDEST DUP10 CALLDATALOAD SWAP9 POP PUSH1 0x20 DUP11 ADD CALLDATALOAD PUSH8 0xFFFFFFFFFFFFFFFF DUP2 GT ISZERO PUSH2 0xA0C JUMPI PUSH0 DUP1 REVERT JUMPDEST PUSH2 0xA18 DUP13 DUP3 DUP14 ADD PUSH2 0x992 JUMP JUMPDEST SWAP1 SWAP10 POP SWAP8 POP POP PUSH1 0x40 DUP11 ADD CALLDATALOAD PUSH8 0xFFFFFFFFFFFFFFFF DUP2 GT ISZERO PUSH2 0xA37 JUMPI PUSH0 DUP1 REVERT JUMPDEST PUSH2 0xA43 DUP13 DUP3 DUP14 ADD PUSH2 0x992 JUMP JUMPDEST SWAP1 SWAP8 POP SWAP6 POP POP PUSH1 0x60 DUP11 ADD CALLDATALOAD PUSH8 0xFFFFFFFFFFFFFFFF DUP2 GT ISZERO PUSH2 0xA62 JUMPI PUSH0 DUP1 REVERT JUMPDEST PUSH2 0xA6E DUP13 DUP3 DUP14 ADD PUSH2 0x992 JUMP JUMPDEST SWAP1 SWAP6 POP SWAP4 POP POP PUSH1 0x80 DUP11 ADD CALLDATALOAD PUSH8 0xFFFFFFFFFFFFFFFF DUP2 GT ISZERO PUSH2 0xA8D JUMPI PUSH0 DUP1 REVERT JUMPDEST PUSH2 0xA99 DUP13 DUP3 DUP14 ADD PUSH2 0x992 JUMP JUMPDEST SWAP2 POP DUP1 SWAP4 POP POP DUP1 SWAP2 POP POP SWAP3 SWAP6 SWAP9 POP SWAP3 SWAP6 SWAP9 POP SWAP3 SWAP6 SWAP9 JUMP JUMPDEST PUSH1 0x1 DUP2 DUP2 SHR SWAP1 DUP3 AND DUP1 PUSH2 0xAC4 JUMPI PUSH1 0x7F DUP3 AND SWAP2 POP JUMPDEST PUSH1 0x20 DUP3 LT DUP2 SUB PUSH2 0xAE2 JUMPI PUSH4 0x4E487B71 PUSH1 0xE0 SHL PUSH0 MSTORE PUSH1 0x22 PUSH1 0x4 MSTORE PUSH1 0x24 PUSH0 REVERT JUMPDEST POP SWAP2 SWAP1 POP JUMP JUMPDEST PUSH4 0x4E487B71 PUSH1 0xE0 SHL PUSH0 MSTORE PUSH1 0x11 PUSH1 0x4 MSTORE PUSH1 0x24 PUSH0 REVERT JUMPDEST DUP2 DUP2 SUB DUP2 DUP2 GT ISZERO PUSH2 0xB0F JUMPI PUSH2 0xB0F PUSH2 0xAE8 JUMP JUMPDEST SWAP3 SWAP2 POP POP JUMP JUMPDEST DUP1 DUP3 ADD DUP1 DUP3 GT ISZERO PUSH2 0xB0F JUMPI PUSH2 0xB0F PUSH2 0xAE8 JUMP JUMPDEST PUSH4 0x4E487B71 PUSH1 0xE0 SHL PUSH0 MSTORE PUSH1 0x41 PUSH1 0x4 MSTORE PUSH1 0x24 PUSH0 REVERT JUMPDEST PUSH1 0x1F DUP3 GT ISZERO PUSH2 0xB83 JUMPI DUP1 PUSH0 MSTORE PUSH1 0x20 PUSH0 KECCAK256 PUSH1 0x1F DUP5 ADD PUSH1 0x5 SHR DUP2 ADD PUSH1 0x20 DUP6 LT ISZERO PUSH2 0xB61 JUMPI POP DUP1 JUMPDEST PUSH1 0x1F DUP5 ADD PUSH1 0x5 SHR DUP3 ADD SWAP2 POP JUMPDEST DUP2 DUP2 LT ISZERO PUSH2 0xB80 JUMPI PUSH0 DUP2 SSTORE PUSH1 0x1 ADD PUSH2 0xB6D JUMP JUMPDEST POP POP JUMPDEST POP POP POP JUMP JUMPDEST DUP2 MLOAD PUSH8 0xFFFFFFFFFFFFFFFF DUP2 GT ISZERO PUSH2 0xBA2 JUMPI PUSH2 0xBA2 PUSH2 0xB28 JUMP JUMPDEST PUSH2 0xBB6 DUP2 PUSH2 0xBB0 DUP5 SLOAD PUSH2 0xAB0 JUMP JUMPDEST DUP5 PUSH2 0xB3C JUMP JUMPDEST PUSH1 0x20 PUSH1 0x1F DUP3 GT PUSH1 0x1 DUP2 EQ PUSH2 0xBE8 JUMPI PUSH0 DUP4 ISZERO PUSH2 0xBD1 JUMPI POP DUP5 DUP3 ADD MLOAD JUMPDEST PUSH0 NOT PUSH1 0x3 DUP6 SWAP1 SHL SHR NOT AND PUSH1 0x1 DUP5 SWAP1 SHL OR DUP5 SSTORE PUSH2 0xB80 JUMP JUMPDEST PUSH0 DUP5 DUP2 MSTORE PUSH1 0x20 DUP2 KECCAK256 PUSH1 0x1F NOT DUP6 AND SWAP2 JUMPDEST DUP3 DUP2 LT ISZERO PUSH2 0xC17 JUMPI DUP8 DUP6 ADD MLOAD DUP3 SSTORE PUSH1 0x20 SWAP5 DUP6 ADD SWAP5 PUSH1 0x1 SWAP1 SWAP3 ADD SWAP2 ADD PUSH2 0xBF7 JUMP JUMPDEST POP DUP5 DUP3 LT ISZERO PUSH2 0xC34 JUMPI DUP7 DUP5 ADD MLOAD PUSH0 NOT PUSH1 0x3 DUP8 SWAP1 SHL PUSH1 0xF8 AND SHR NOT AND DUP2 SSTORE JUMPDEST POP POP POP POP PUSH1 0x1 SWAP1 DUP2 SHL ADD SWAP1 SSTORE POP JUMP JUMPDEST PUSH0 PUSH1 0x1 DUP3 ADD PUSH2 0xC54 JUMPI PUSH2 0xC54 PUSH2 0xAE8 JUMP JUMPDEST POP PUSH1 0x1 ADD SWAP1 JUMP INVALID LOG2 PUSH5 0x6970667358 0x22 SLT KECCAK256 0xAF 0x2F DUP4 0x4B 0xF9 0xDD CALLER PREVRANDAO CODECOPY BLOBHASH MLOAD 0x27 CREATE2 INVALID 0xEC 0xA9 0xC3 TIMESTAMP 0xBC ADDMOD SWAP14 0xC6 DIV EXTCODECOPY JUMPI SHL 0xB8 XOR SDIV 0xB1 PUSH21 0xCB64736F6C634300081A0033000000000000000000 "
				},
				"gasEstimates": {
					"creation": {
						"codeDepositCost": "643400",
						"executionCost": "69120",
						"totalCost": "712520"
					},
					"external": {
						"addCampaign(uint256,string,string,string,string)": "infinite",
						"campaigns(uint256)": "infinite",
						"donate(uint256)": "26829",
						"fee()": "2315",
						"nextId()": "2339",
						"owner()": "2336",
						"withdraw(uint256)": "infinite"
					}
				},
				"methodIdentifiers": {
					"addCampaign(uint256,string,string,string,string)": "ffe4082f",
					"campaigns(uint256)": "141961bc",
					"donate(uint256)": "f14faf6f",
					"fee()": "ddca3f43",
					"nextId()": "61b8ce8c",
					"owner()": "8da5cb5b",
					"withdraw(uint256)": "2e1a7d4d"
				}
			},
			"storageLayout": {
				"storage": [
					{
						"astId": 21,
						"contract": "contracts/DonateCrypto.sol:DonateCrypto",
						"label": "fee",
						"offset": 0,
						"slot": "0",
						"type": "t_uint256"
					},
					{
						"astId": 24,
						"contract": "contracts/DonateCrypto.sol:DonateCrypto",
						"label": "nextId",
						"offset": 0,
						"slot": "1",
						"type": "t_uint256"
					},
					{
						"astId": 29,
						"contract": "contracts/DonateCrypto.sol:DonateCrypto",
						"label": "campaigns",
						"offset": 0,
						"slot": "2",
						"type": "t_mapping(t_uint256,t_struct(Campaign)18_storage)"
					},
					{
						"astId": 31,
						"contract": "contracts/DonateCrypto.sol:DonateCrypto",
						"label": "owner",
						"offset": 0,
						"slot": "3",
						"type": "t_address"
					},
					{
						"astId": 54,
						"contract": "contracts/DonateCrypto.sol:DonateCrypto",
						"label": "locked",
						"offset": 20,
						"slot": "3",
						"type": "t_bool"
					}
				],
				"types": {
					"t_address": {
						"encoding": "inplace",
						"label": "address",
						"numberOfBytes": "20"
					},
					"t_bool": {
						"encoding": "inplace",
						"label": "bool",
						"numberOfBytes": "1"
					},
					"t_mapping(t_uint256,t_struct(Campaign)18_storage)": {
						"encoding": "mapping",
						"key": "t_uint256",
						"label": "mapping(uint256 => struct Campaign)",
						"numberOfBytes": "32",
						"value": "t_struct(Campaign)18_storage"
					},
					"t_string_storage": {
						"encoding": "bytes",
						"label": "string",
						"numberOfBytes": "32"
					},
					"t_struct(Campaign)18_storage": {
						"encoding": "inplace",
						"label": "struct Campaign",
						"members": [
							{
								"astId": 3,
								"contract": "contracts/DonateCrypto.sol:DonateCrypto",
								"label": "creator",
								"offset": 0,
								"slot": "0",
								"type": "t_address"
							},
							{
								"astId": 5,
								"contract": "contracts/DonateCrypto.sol:DonateCrypto",
								"label": "goalAmount",
								"offset": 0,
								"slot": "1",
								"type": "t_uint256"
							},
							{
								"astId": 7,
								"contract": "contracts/DonateCrypto.sol:DonateCrypto",
								"label": "title",
								"offset": 0,
								"slot": "2",
								"type": "t_string_storage"
							},
							{
								"astId": 9,
								"contract": "contracts/DonateCrypto.sol:DonateCrypto",
								"label": "description",
								"offset": 0,
								"slot": "3",
								"type": "t_string_storage"
							},
							{
								"astId": 11,
								"contract": "contracts/DonateCrypto.sol:DonateCrypto",
								"label": "videoUrl",
								"offset": 0,
								"slot": "4",
								"type": "t_string_storage"
							},
							{
								"astId": 13,
								"contract": "contracts/DonateCrypto.sol:DonateCrypto",
								"label": "imageUrl",
								"offset": 0,
								"slot": "5",
								"type": "t_string_storage"
							},
							{
								"astId": 15,
								"contract": "contracts/DonateCrypto.sol:DonateCrypto",
								"label": "balance",
								"offset": 0,
								"slot": "6",
								"type": "t_uint256"
							},
							{
								"astId": 17,
								"contract": "contracts/DonateCrypto.sol:DonateCrypto",
								"label": "active",
								"offset": 0,
								"slot": "7",
								"type": "t_bool"
							}
						],
						"numberOfBytes": "256"
					},
					"t_uint256": {
						"encoding": "inplace",
						"label": "uint256",
						"numberOfBytes": "32"
					}
				}
			},
			"userdoc": {
				"kind": "user",
				"methods": {},
				"version": 1
			}
		}
	}
}